:060000000A128A11F22F22
:10001400F30083120313081173080A168A151623B2
:100024000A128A118312031388150630F200303045
:10003400F100F10B1B28F20B1B28000083120313A1
:10004400881108000310720D730D83120313A500A9
:100054002508031D2E282F2838280030F3000030EF
:10006400F2000030F1000030F000DB280310760DC0
:10007400770DA4002408031D4028412842282F2876
:10008400F217FF30F005FF30F105FF30F2050030C4
:10009400F305F617FF30F405FF30F505FF30F605DC
:1000A4000030F7050030A3000030A2000030A100AA
:1000B4000030A0007F30A502A0302407F8007808A3
:1000C400A5022030A4000130F8000310A00DA10DFA
:1000D400A20DA30DF80B672877087302031D7C2873
:1000E40076087202031D7C2875087102031D7C28A2
:1000F40074087002031C7F2880288F287408F0027B
:100104007508031C750FF1027608031C760FF202C2
:100114007708031C770FF30220140130F800031052
:10012400F00DF10DF20DF30DF80B91280130A4023E
:10013400031D9D289E286528A51FA128A228BC2848
:100144002508803A9F3E0318A828A928AA282F2802
:1001540001300310A30CA20CA10CA00CFF3E031D44
:10016400AB280130F8007808A507031DBA28BB287E
:10017400AA28D32820302502031CC128C228CE284F
:100184002F280130F8000310A00DA10DA20DA30D1E
:10019400F80BC5280130A5022508031DD228D32851
:1001A400C3282308F3002208F2002108F1002008E4
:1001B400F000080007300A168A15C3260A128A11AD
:1001C4000A168A1538230A128A110A168A1566260F
:1001D4000A128A110A168A15F7220A128A110230A3
:1001E400F40001300A168A1525250A128A11913065
:1001F400F5008030F6000A168A159F240A128A1127
:100204000A168A15C3220A128A111130F00000302E
:10021400F1000A168A15D5220A128A110030F0005C
:10022400F1000A168A15CC230A128A117008831663
:100234000313CB000A168A15CC220A128A11033042
:1002440083160313C5000830C4007630C300C30B03
:100254002929C40B2929C50B2929000043308312FD
:100264000313C1007F30C0000030BF000030BE0067
:100274004030A700A030A6000030A5000030A40044
:10028400831603134B08C300C401C501C601460805
:10029400F3004508F2004408F1004308F00001307F
:1002A4000A128A15A4200A128A11730883120313EE
:1002B400AB007208AA007108A9007008A8000A120D
:1002C4008A155C210A128A11831203132708C500B8
:1002D4002608C4002508C3002408C2000A168A118F
:1002E400CA210A128A1183120313410883160313C5
:1002F400CA0083120313400883160313C900831230
:1003040003133F0883160313C800831203133E0824
:1003140083160313C7009630A0004A08A4004908B6
:10032400A3004808A2004708A100CC300A128A1191
:10033400B2210A128A11F401F40A02300A168A154B
:1003440025250A128A11CC30F5000030F6000A1671
:100354008A159F240A128A1102290A128A11002876
:1003640083160313BB00A130AE00DD2F25304206F7
:100374000319BD29BE29C8293B08840042088313F8
:1003840080000130A5002508BB07DD2FAF01B001B7
:10039400200884000A168A110A200A128A112E3AA9
:1003A400031DD529D6291B2A30170130A50025089D
:1003B400A007BC01BD010A2A0A30F0000030F10098
:1003C400831603133D08F3003C08F2000A168A154D
:1003D40080230A128A11710883160313BD00700862
:1003E400BC00200884000A168A110A200A128A1105
:1003F400D03EA500FF3003180030A6002508BC0736
:100404000318BD0A2608BD070130A5002508A0076A
:10041400200884000A168A110A200A128A110A1670
:100424008A1504230A128A110318192A1A2ADE29A2
:10043400212ABC01BD013016212A30153D2A013084
:1004440083160313A007FF30200784000A168A11BD
:100454000A200A128A11C200A500A6012608003A41
:100464000319352ADD2F2508003A0319ED2F663AC2
:1004740003191F2ADD2F00302F05A5000730300592
:10048400A600250826040319482A492A9A2F301E53
:100494004C2A4D2A512A0630BC000030BD002E08DB
:1004A400840083130008BE00840A0008BF00840A85
:1004B4000008C000840A0008C1000430A500250813
:1004C400AE074108F3004008F2003F08F1003E087F
:1004D400F0000030F7000030F6000030F500003086
:1004E400F4000A128A1502200A128A1103187B2AC0
:1004F4007C2A992A831603134108F3004008F2006A
:100504003F08F1003E08F0000A168A15DF220A129D
:100514008A11730883160313C1007208C00071089E
:10052400BF007008BE000330AF040030B00483166F
:100534000313B501B6014108F3004008F2003F0877
:10054400F1003E08F0000030F7000030F600003003
:10055400F5000030F4000A168A156B250A128A1178
:100564000318B52AB62AA62B031083160313400DCD
:10057400410D823EB500FF3003180030B600FF3055
:10058400B5070318B60AFF30B6070330F000003091
:10059400F1003608F3003508F2000A168A158023A4
:1005A4000A128A11710883160313B6007008B50085
:1005B4000A30F7000030F8003608FA003508F90070
:1005C4000A168A11AA200A128A11780883160313BC
:1005D400B6007708B500B61FF02AF12AF72AFF30D3
:1005E400B5070318B60AFF30B6073503FF3A0A12F7
:1005F4008A15A1240A128A1183120313410883164F
:100604000313BA0083120313400883160313B900BB
:10061400831203133F0883160313B80083120313D2
:100624003E0883160313B700410883120313A7007F
:1006340083160313400883120313A60083160313BF
:100644003F0883120313A500831603133E08831285
:100654000313A400831603133A0883120313AB0095
:1006640083160313390883120313AA008316031392
:10067400380883120313A90083160313370883125F
:100684000313A8000A128A155C210A128A11831224
:100694000313270883160313BA00831203132608CF
:1006A40083160313B9008312031325088316031357
:1006B400B80083120313240883160313B7003A08FF
:1006C400F3003908F2003808F1003708F0003F3031
:1006D400F7008030F6000030F5000030F4000A1214
:1006E4008A1502200A128A110318792B7A2B832B7C
:1006F400FF3083160313B5070318B60AFF30B60795
:10070400A62B831603133A08F3003908F2003808BD
:10071400F1003708F0004130F7002030F6000030D7
:10072400F5000030F4000A128A1502200A128A1118
:10073400031C9D2B9E2BA62B013083160313B50798
:100744000318B60A0030B607831603133D08803A2F
:10075400FF0080307F02031DB12B0D303C020318D3
:10076400B42BB52BFC2B831603133C080A168A11F1
:100774009D230A128A11831203134108D5004008ED
:10078400D4003F08D3003E08D20083160313410867
:1007940083120313D900831603134008831203132F
:1007A400D800831603133F0883120313D70083165C
:1007B40003133E0883120313D6000A168A11A825D0
:1007C4000A128A1183120313550883160313C100F6
:1007D40083120313540883160313C00083120313F4
:1007E400530883160313BF0083120313520883169E
:1007F4000313BE00831603133608803AFF008030CB
:100804007F02031D072C0A30350203180A2C0B2C17
:100814005C2C831603134108F3004008F2003F08E0
:10082400F1003E08F0000030F7000030F600003020
:10083400F5000030F4000A168A156B250A128A1195
:100844000318252C262CCE2C83160313410883125F
:100854000313D40083160313400883120313D30035
:10086400831603133F0883120313D2008316031362
:100874003E0883120313D1000A168A1588270A1228
:100884008A11831203135408530452045104031DA0
:100894004C2C4D2CCE2C831603133608803AFF00C3
:1008A40080307F02031D582C02303502031C5B2C60
:1008B4005C2CCE2C831603133A08F3003908F2009B
:1008C4003808F1003708F0004030F7008930F600AE
:1008D4007030F5005F30F4000A128A1502200A1203
:1008E4008A110318762C772C802CF7308316031387
:1008F400B5070318B60AFF30B607882CF8308316FC
:100904000313B5070318B60AFF30B60735080A12F1
:100914008A15A1240A128A1183120313410883162B
:100924000313BA0083120313400883160313B90098
:10093400831203133F0883160313B80083120313AF
:100944003E0883160313B7004108F3004008F20081
:100954003F08F1003E08F0003A08F7003908F600B5
:100964003808F5003708F4000A128A1124200A1204
:100974008A11730883160313B4007208B300710854
:10098400B2007008B1000030C1000030C000003077
:10099400BF000030BE00522D83160313410883129A
:1009A4000313D40083160313400883120313D300E4
:1009B400831603133F0883120313D2008316031311
:1009C4003E0883120313D1000A168A1588270A12D7
:1009D4008A1183120313540883160313B400831279
:1009E4000313530883160313B3008312031352082B
:1009F40083160313B20083120313510883160313DF
:100A0400B1003408F3003308F2003208F100310871
:100A1400F00000300A128A15A4200A128A11730801
:100A240083120313E9007208E8007108E7007008F4
:100A3400E60083160313410883120313ED008316A3
:100A44000313400883120313EC00831603133F08B7
:100A540083120313EB00831603133E08831203135C
:100A6400EA000A168A155C230A128A1183120313F8
:100A7400690883160313C1008312031368088316DD
:100A84000313C00083120313670883160313BF0004
:100A940083120313660883160313BE00B501B6015F
:100AA400C201C20A4208A50001300310A50DFF3E91
:100AB400031D572D0310250D693E84000A168A1163
:100AC4000A200A128A11A6000A168A110A200A129A
:100AD4008A11A7000A168A110A200A128A11A8008C
:100AE4000A168A110A200A128A11A9002908340256
:100AF400031D862D28083302031D862D2708320284
:100B0400031D862D260831020318892D8A2D8B2D6D
:100B1400952D0130A5002508C2070A304206031DA1
:100B2400942D952D542D03302F05A500003030054C
:100B3400A600250826040319A02DA12D0F2E3B087D
:100B440084002D30831380000130A5002508BB07E5
:100B54000F2E4208A50001300310A50DFF3E031D12
:100B6400AE2D0310250D693E84000A168A110A2051
:100B74000A128A11F0000A168A110A200A128A112E
:100B8400F1000A168A110A200A128A11F2000A16C2
:100B94008A110A200A128A11F3003408F700330874
:100BA400F6003208F5003108F4000A168A152227E7
:100BB4000A128A11730883160313BA007208B90063
:100BC4007108B8007008B7000030F3000030F2007C
:100BD4000030F1000A30F0003A08F7003908F60056
:100BE4003808F5003708F4000A168A15B9250A12E0
:100BF4008A11730883160313BA007208B9007108C6
:100C0400B8007008B7003B0884003708303E8313EF
:100C140080000130A5002508BB070130C202420A4A
:100C2400031D152E162EAB2D282E831603133B08F9
:100C340084003030831380000130A5002508BB07F1
:100C4400FF30B5070318B60AFF30B6073608803AF6
:100C5400FF0080307F02031D312E0130350203185E
:100C6400342E352E172E831603133D08803AFF00C9
:100C740080307F02031D402E09303C02031C432EAA
:100C8400442E492E083083160313C2004D2E8316BA
:100C940003133C08C2004208A500A6012508BC02B3
:100CA4002608031CBD03BD02420803195A2E5B2EFD
:100CB400642E3B0884002E30831380000130A5008D
:100CC4002508BB0742080A128A15A1240A128A11B0
:100CD40083120313410883160313AD008312031315
:100CE400400883160313AC00831203133F088316D2
:100CF4000313AB00831203133E0883160313AA00E5
:100D04002D0883120313AB00831603132C088312DC
:100D14000313AA00831603132B0883120313A900D9
:100D2400831603132A0883120313A80083160313DC
:100D3400410883120313A700831603134008831288
:100D44000313A600831603133F0883120313A5009D
:100D5400831603133E0883120313A4000A128A1590
:100D64005C210A128A11831203132708D40026086F
:100D7400D3002508D2002408D1000A168A15882732
:100D84000A128A1183120313540883160313B4003E
:100D940083120313530883160313B300831203133C
:100DA400520883160313B2008312031351088316E7
:100DB4000313B1007C2F4208A50001300310A50DD8
:100DC400FF3E031DE02E0310250D693E84000A1624
:100DD4008A110A200A128A11F0000A168A110A20BE
:100DE4000A128A11F1000A168A110A200A128A11BB
:100DF400F2000A168A110A200A128A11F300340832
:100E0400F7003308F6003208F5003108F4000A163A
:100E14008A1522270A128A11730883160313BA004B
:100E24007208B9007108B8007008B7000030F30008
:100E34000030F2000030F1000A30F0003A08F70008
:100E44003908F6003808F5003708F4000A168A1540
:100E5400B9250A128A11730883160313BA0072089B
:100E6400B9007108B8007008B7003B08840037085F
:100E7400303E831380000130A5002508BB074208DB
:100E8400A50001300310A50DFF3E031D442F0310E0
:100E9400250D693E84000A168A110A200A128A1155
:100EA400F0000A168A110A200A128A11F1000A16A1
:100EB4008A110A200A128A11F2000A168A110A20DB
:100EC4000A128A11F3003408F7003308F6003208D6
:100ED400F5003108F4000A168A15B9250A128A1198
:100EE400730883160313B4007208B3007108B200C8
:100EF4007008B1000130C202420A031D822F832F01
:100F0400DD2E932F3B0884003030831380000130A2
:100F1400A5002508BB07FF30BC070318BD0AFF3036
:100F2400BD073C083D04031D982F992F842FDD2F06
:100F34003C083D04031D9F2FA02FAE2F340833041B
:100F440032043104031DA72FA82FAE2F0130BC0794
:100F54000318BD0A0030BD073D08803A803C031DDC
:100F6400B52F3C0842020318B82FB92FBA2FC92F46
:100F7400831603133D08803AA50080302502031D23
:100F8400C52F42083C020318C82FC92FC92F0330AC
:100F9400831603132F05A50000303005A60025088D
:100FA40026040319D62FD72FDD2F3B0884002D30BC
:100FB40083138000C3290130A007FF302007840079
:100FC4000A168A110A200A128A11C2004208031D55
:100FD400EC2FED2FB8293B0884008313800108000F
:100FE40083160313C701C801C901CA01CB01CC018F
:0C0FF400CD01CE0183010A128A11DC2815
:1010040000307005F80000307105F9008030720579
:10101400FA007F307305FB007B087A0479047804B6
:10102400031D152816281E280030F3000030F20096
:101034000030F1000030F00000307405F80000309A
:101044007505F90080307605FA007F307705FB00DE
:101054007B087A0479047804031D312832283A285D
:101064000030F7000030F6000030F5000030F400E6
:10107400F31F3D283E2862280030F8000030F900B4
:101084000030FA008030FB007008F8027108031C7D
:10109400710F4D284E28F9027208031C720F532851
:1010A4005428FA027308031C730F59285A28FB02A8
:1010B4007B08F3007A08F2007908F1007808F00060
:1010C400F71F652866288A280030F8000030F900E8
:1010D4000030FA008030FB007408F8027508031C25
:1010E400750F75287628F9027608031C760F7B287D
:1010F4007C28FA027708031C770F81288228FB02D8
:101104007B08F7007A08F6007908F5007808F400FF
:101114008030F3068030F70677087302031D9C289D
:1011240076087202031D9C2875087102031D9C2811
:101134007408700203189F28A028A2280310A3286B
:1011440003140800F80078080319A928AA28BE285F
:10115400F31FAD28AE28BE287009FA007109FB0000
:101164007209FC007309FD00FA0A0319FB0A03194A
:10117400FC0A0319FD0AC6287308FD007208FC0066
:101184007108FB007008FA0073087204710470049B
:10119400031DCD28CE28D7280030F3000030F200FC
:1011A4000030F1000030F0005B299630F900E728A8
:1011B4000130F4007408F90701300310FD0CFC0C35
:1011C400FB0CFA0CFF3E031DDF28FE307D05031DDA
:1011D400EC28ED28DA2809290130F4007408F9070D
:1011E4000130FA07003003180130FB070030031800
:1011F4000130FC07003003180130FD0701300310F3
:10120400FD0CFC0CFB0CFA0CFF3E031D0129FF3006
:101214007D05031D0E290F29EE281B290130F90233
:101224000130F4000310FA0DFB0DFC0DFD0DF40B61
:101234001429FC1B1E291F292529023079020318B1
:101244002429252910297918282929293129FF3009
:10125400FA05FF30FB057F30FC05FF30FD05031068
:10126400F90C7908F400F501F601F70118300310C0
:10127400F40DF50DF60DF70DFF3E031D3929740825
:10128400FA047508FB047608FC047708FD04780862
:1012940003194D294E295329F31F51295229532942
:1012A400FD177D08F3007C08F2007B08F1007A0842
:1012B400F00008008312031327088039B1002708BF
:1012C400AC002C07B700A61F682969296A293714BE
:1012D400370803196E296F297E29370A031D7329DC
:1012E40074297C290030A7000030A6000030A50036
:1012F4000030A400A61786290030A7000030A600FD
:101304000030A5000030A4002B088039AC002C0864
:10131400B1062B08AC002C07B600AA1F922993290A
:10132400942936143608031998299929A829360AC4
:10133400031D9D299E29A6290030AB000030AA0078
:101344000030A9000030A800AA17B0290030AB0073
:101354000030AA000030A9000030A80036080319A4
:10136400B429B529BA293708031DB929BA29C329CB
:101374000030A7000030A6000030A5000030A40013
:10138400A02C2408F0002A080A168A15A5230A129C
:101394008A15710883120313BD007008BC003C0851
:1013A400AC00AD01AE01AF012F08B5002E08B400AA
:1013B4002D08B3002C08B2003D08AC00AD01AE010D
:1013C400AF012F08BB002E08BA002D08B9002C0865
:1013D400B8002508F00029080A168A15A5230A1260
:1013E4008A15710883120313BD007008BC003C0801
:1013F400AC00AD01AE01AF012C08B2072D080311FA
:101404000318013E0319072AB3072E080311031812
:10141400013E03190E2AB4072F0803110318013ED5
:101424000319152AB5073D08AC00AD01AE01AF01A3
:101434002C08B8072D0803110318013E0319232AA9
:10144400B9072E0803110318013E03192A2ABA0703
:101454002F0803110318013E0319312ABB0726087C
:10146400F00028080A168A15A5230A128A1571089D
:1014740083120313BD007008BC003C08AC00AD012E
:10148400AE01AF012C08B2072D0803110318013E69
:1014940003194D2AB3072E0803110318013E03193B
:1014A400542AB4072F0803110318013E03195B2AB9
:1014B400B5073D08AC00AD01AE01AF012C08B8077B
:1014C4002D0803110318013E0319692AB9072E08D0
:1014D40003110318013E0319702ABA072F080311D8
:1014E4000318013E0319772ABB070830AC00031028
:1014F400B20DB30DB40DB50DAC0B792A2508F0006F
:1015040028080A168A15A5230A128A157108831257
:101514000313BD007008BC003C08AC003D08AD00DE
:10152400AE01AF012C08B2072D0803110318013EC8
:1015340003199D2AB3072E0803110318013E03194A
:10154400A42AB4072F0803110318013E0319AB2A78
:10155400B5072408F00029080A168A15A5230A12DB
:101564008A15710883120313BD007008BC003C087F
:10157400AC003D08AD00AE01AF012C08B2072D0848
:1015840003110318013E0319C82AB3072E080311D7
:101594000318013E0319CF2AB4072F0803110318B7
:1015A400013E0319D62AB5070830AC000310B20D6A
:1015B400B30DB40DB50DAC0BD82A2408F0002808DF
:1015C4000A168A15A5230A128A15710883120313B1
:1015D400BD007008BC003C08AC003D08AD00AE0185
:1015E400AF012C08B2072D0803110318013E03199B
:1015F400FC2AB3072E0803110318013E0319032B19
:10160400B4072F0803110318013E03190A2BB50769
:101614002508F0002A080A168A15A5230A128A1535
:10162400710883120313BD007008BC003C08AC00B1
:101634003D08AD00AE01AF012C08B8072D08031119
:101644000318013E0319272BB9072E0803110318A9
:10165400013E03192E2BBA072F0803110318013E6C
:101664000319352BBB072608F00029080A168A152A
:10167400A5230A128A15710883120313BD0070088A
:10168400BC003C08AC003D08AD00AE01AF012C0825
:10169400B8072D0803110318013E0319522BB9078B
:1016A4002E0803110318013E0319592BBA072F08FA
:1016B40003110318013E0319602BBB072608F00031
:1016C4002A080A168A15A5230A128A157108831294
:1016D4000313BD007008BC003C08AC003D08AD001D
:1016E400AE01AF0108300310AC0DAD0DAE0DAF0D62
:1016F400FF3E031D752B2C08B8072D080311031892
:10170400013E0319862BB9072E0803110318013E65
:1017140003198D2BBA072F0803110318013E03196F
:10172400942BBB073208AC003308AD003408AE007C
:101734003508AF0018300310AF0CAE0CAD0CAC0C78
:10174400FF3E031D9D2B2C08B8072D080311031819
:10175400013E0319AE2BB9072E0803110318013EED
:101764000319B52BBA072F0803110318013E0319F7
:10177400BC2BBB070830AC000310B20DB30DB40D85
:10178400B50DAC0BBE2B37083607AC00AD01AD0D63
:101794002C08823EBC002D080318013EFF3EBD000C
:1017A400F02B0130AC000310B80DB90DBA0DBB0D10
:1017B400AC0BD52BB51FDF2BE02BE12B38140130FC
:1017C400AC000310B20DB30DB40DB50DAC0BE32B8F
:1017D400FF30BC070318BD0AFF30BD07BA1FF32B47
:1017E400F42BD32BB601B51FF82BF92B152CFF3096
:1017F4003205AC00FF303305AD00FF303405AE00D8
:101804007F303505AF002F082E042D042C04031956
:101814000C2C0D2C102CB601B60A152C381C132CCC
:10182400142C152C0D2C36080319192C1A2C4B2C9E
:101834000130B807003003180130B907003003182D
:101844000130BA07003003180130BB073B1C2B2CB6
:101854002C2C4B2C3808AC003908AD003A08AE00EB
:101864003B08AF000130B0002F0DAF0CAE0CAD0C37
:10187400AC0CB00B362C2F08BB002E08BA002D0878
:10188400B9002C08B8000130BC070318BD0A0030A9
:10189400BD073D08803AFF0080307F02031D542CB1
:1018A400FF303C02031C572C582C632C7F308312CE
:1018B4000313BB008030BA000030B9000030B80018
:1018C400942C831203133D08803AFF0080307F027A
:1018D400031D6E2C01303C020318712C722C7E2CDB
:1018E400003083120313BB000030BA000030B9008B
:1018F4000030B800B101942C831203133C08B700E4
:10190400FF30B805FF30B9057F30BA050030BB059C
:10191400371C8D2C8E2C8F2CBA173708AC00031073
:101924002C0CBB003108AC002C08BB043B08A700FE
:101934003A08A6003908A5003808A4000800831254
:101944000313D000D01FA72CA82C552ED009D00AE1
:101954005008803A123E031CB02CB12C992D0A3049
:10196400F7000030F8005008F200F301F21BF30313
:101974006430F0000030F1000A168A150D260A12B0
:101984008A157108FA007008F9000A168A11AA204B
:101994000A128A15770883120313C2000130031058
:1019A400C20DFF3E031DD12C0310420D593E84008D
:1019B4000A168A110A200A128A15C3000A168A1105
:1019C4000A200A128A15C4000A168A110A200A1269
:1019D4008A15C5000A168A110A200A128A15C60039
:1019E4004608A7004508A6004408A5004308A4002B
:1019F4006430F7000030F8005008F900FA01F91BD0
:101A0400FA030A168A11AA200A128A157708831281
:101A14000313C70001300310C70DFF3E031D0D2D36
:101A24000310470D7D3E84000A168A110A200A120B
:101A34008A15C8000A168A110A200A128A15C900D2
:101A44000A168A110A200A128A15CA000A168A116D
:101A54000A200A128A15CB004B08AB004A08AA00D8
:101A64004908A9004808A8000A128A155C210A122C
:101A74008A15831203132708CF002608CE002508F1
:101A8400CD002408CC000A30F0000030F1005008EA
:101A9400F200F301F21BF3030A168A150D260A124B
:101AA4008A15700883120313C20001300310C20D9B
:101AB400FF3E031D582D0310420D353E84000A16C7
:101AC4008A110A200A128A15C3000A168A110A20EA
:101AD4000A128A15C4000A168A110A200A128A15E3
:101AE400C5000A168A110A200A128A15C600460879
:101AF400A7004508A6004408A5004308A4004F0811
:101B0400AB004E08AA004D08A9004C08A8000A1210
:101B14008A155C210A128A15831203132708C1004F
:101B24002608C0002508BF002408BE00FF2F500867
:101B3400803A753E031C9F2DA02D282E0A30F000FC
:101B44000030F1005008F200F301F21BF3030A160F
:101B54008A150D260A128A15700883120313C2000F
:101B640001300310C20DFF3E031DB32D0310420DBF
:101B7400353E84000A168A110A200A128A15C30007
:101B84000A168A110A200A128A15C4000A168A1132
:101B94000A200A128A15C5000A168A110A200A1296
:101BA4008A15C6004608A7004508A6004408A500F3
:101BB4004308A4000A30F7000030F8005008F90088
:101BC400FA01F91BFA030A168A11AA200A128A15C5
:101BD400770883120313C70001300310C70DFF3EBB
:101BE400031DEF2D0310470D593E84000A168A1178
:101BF4000A200A128A15C8000A168A110A200A1233
:101C04008A15C9000A168A110A200A128A15CA00FE
:101C14000A168A110A200A128A15CB004B08AB0057
:101C24004A08AA004908A9004808A8000A128A1507
:101C34005C210A128A15831203132708C10026089F
:101C4400C0002508BF002408BE00FF2F5008C200B2
:101C540001300310C20DFF3E031D2B2E0310420D55
:101C6400353E84000A168A110A200A128A15C30016
:101C74000A168A110A200A128A15C4000A168A1141
:101C84000A200A128A15C5000A168A110A200A12A5
:101C94008A15C6004608C1004508C0004408BF00B4
:101CA4004308BE00FF2F5008803A123E031C5B2EEF
:101CB4005C2E442F0A30F7000030F8005008F20080
:101CC400F301F21BF3036430F0000030F1000A1654
:101CD4008A150D260A128A157108FA007008F9008F
:101CE4000A168A11AA200A128A1577088312031386
:101CF400C20001300310C20DFF3E031D7C2E0310F1
:101D0400420D253E84000A168A110A200A128A15F9
:101D1400C3000A168A110A200A128A15C4000A1678
:101D24008A110A200A128A15C5000A168A110A2085
:101D34000A128A15C6004608A7004508A6004408EA
:101D4400A5004308A4006430F7000030F8005008F0
:101D5400F900FA01F91BFA030A168A11AA200A12D9
:101D64008A15770883120313C70001300310C70DC7
:101D7400FF3E031DB82E0310470D493E84000A168A
:101D84008A110A200A128A15C8000A168A110A2022
:101D94000A128A15C9000A168A110A200A128A151B
:101DA400CA000A168A110A200A128A15CB004B08A7
:101DB400AB004A08AA004908A9004808A8000A126A
:101DC4008A155C210A128A15831203132708CF008F
:101DD4002608CE002508CD002408CC000A30F000E7
:101DE4000030F1005008F200F301F21BF3030A166D
:101DF4008A150D260A128A15700883120313C2006D
:101E040001300310C20DFF3E031D032F0310420DCA
:101E1400013E84000A168A110A200A128A15C30098
:101E24000A168A110A200A128A15C4000A168A118F
:101E34000A200A128A15C5000A168A110A200A12F3
:101E44008A15C6004608A7004508A6004408A50050
:101E54004308A4004F08AB004E08AA004D08A9008F
:101E64004C08A8000A128A155C210A128A158312EA
:101E740003132708C1002608C0002508BF00240852
:101E8400BE00FF2F5008803A753E031C4A2F4B2F8B
:101E9400D32F0A30F0000030F1005008F200F301B3
:101EA400F21BF3030A168A150D260A128A15700806
:101EB40083120313C20001300310C20DFF3E031D41
:101EC4005E2F0310420D013E84000A168A110A2077
:101ED4000A128A15C3000A168A110A200A128A15E0
:101EE400C4000A168A110A200A128A15C5000A16A5
:101EF4008A110A200A128A15C6004608A700450856
:101F0400A6004408A5004308A4000A30F7000030E6
:101F1400F8005008F900FA01F91BFA030A168A11AD
:101F2400AA200A128A15770883120313C700013006
:101F34000310C70DFF3E031D9A2F0310470D253EC6
:101F440084000A168A110A200A128A15C8000A1681
:101F54008A110A200A128A15C9000A168A110A204F
:101F64000A128A15CA000A168A110A200A128A1548
:101F7400CB004B08AB004A08AA004908A90048084E
:101F8400A8000A128A155C210A128A158312031307
:101F94002708C1002608C0002508BF002408BE0089
:101FA400FF2F5008C20001300310C20DFF3E031D75
:101FB400D62F0310420D013E84000A168A110A200E
:101FC4000A128A15C3000A168A110A200A128A15EF
:101FD400C4000A168A110A200A128A15C5000A16B4
:101FE4008A110A200A128A15C6004608C10045084B
:101FF400C0004408BF004308BE000800FF1B0A28B5
:1020040083137F1883170008840A0319FF0A080042
:1020140010308A000408840A820700340034003433
:1020240080343F34003400342034413400340034EC
:10203400C8344234003400347A34443400344034F4
:102044001C34463400345034C3344734003424340C
:10205400743449348034963418344B342034BC34CA
:10206400BE344C3428346B346E344E34F934023478
:1020740015345034EC347834AD346034CA34F2342A
:10208400493471340034003480343F34CD34CC349A
:10209400CC343D340A34D73423343C346F341234D2
:1020A40083343A341734B734D1343834AC34C53487
:1020B40027343734BD343734863435349534BF341B
:1020C400D63433347734CC342B3432345F347034F4
:1020D40089343034FF34E634DB342E340834E534C8
:1020E4003C341E3460344234A2340D3401340034A0
:1020F400003400340A3400340034003464340034CE
:1021040000340034E8340334003400341034273409
:1021140000340034A0348634013400344034423472
:102124000F34003480349634983400340034E1346D
:10213400F53405340034CA349A343B3453343134DE
:102144003A342034003425342E34323466340034A6
:1021540083120313A101F81FB028B128B828F70986
:10216400F809F70A0319F80AA101A10AFA1FBB2802
:10217400BC28C528F909FA09F90A0319FA0A013031
:10218400FB007B08A106A201A301770878040319C8
:10219400CC28CD280429A001A00ADB280130031093
:1021A400F70DF80DFF3E031DD1280130FB007B081D
:1021B400A007F81FDE28DF28D02801300310A20D65
:1021C400A30DFF3E031DE02878087A02031DEC28C6
:1021D40077087902031CEF28F028F7287708F9021A
:1021E4007808031CFA03FA02221401300310F80CD5
:1021F400F70CFF3E031DF8280130A002031D03293C
:102204000429DF2821080319082909290E29A2090C
:10221400A309A20A0319A30A2308F8002208F70055
:1022240008007008F8007108F9007208FA00031039
:10223400790D7A0D83120313A5002508031D2329A4
:1022440024292D290030F3000030F2000030F10081
:102254000030F000C9297408F8007508F900760800
:10226400FA000310790D7A0DA4002408031D3B29FC
:102274003C293D292429F117FF30F005FF30F105F1
:102284000030F205F517FF30F405FF30F505003096
:10229400F6050030A3000030A2000030A100003099
:1022A400A0007F30A50298302407F8007808A50222
:1022B4001830A4000130F8000310A00DA10DA20DE8
:1022C400A30DF80B5E2976087202031D6F297508A9
:1022D4007102031D6F2974087002031C722973298B
:1022E4007E297408F0027508031C750FF102760844
:1022F400031C760AF202201401300310F00DF10DD4
:10230400F20DFF3E031D7F290130A402031D8B291A
:102314008C295C29A51F8F299029AA292508803A90
:10232400973E0318962997299829242901300310E8
:10233400A30CA20CA10CA00CFF3E031D9929013093
:10234400F8007808A507031DA829A9299829C129F7
:1023540018302502031CAF29B029BC2924290130D7
:10236400F8000310A00DA10DA20DA30DF80BB329C5
:102374000130A5022508031DC029C129B12923085C
:10238400F3002208F2002108F1002008F000080000
:102394008312031345088039CF004508C600460759
:1023A400D600C41FD629D729D8295614560803198C
:1023B400DC29DD29ED29560A031DE129E229EA2950
:1023C4000030C5000030C4000030C3000030C2003B
:1023D400C417C501F5290030C5000030C400003021
:1023E400C3000030C20041088039C6004608CF0649
:1023F4004108C6004607D700C01F012A022A032A43
:10240400571457080319072A082A182A570A031DBC
:102414000C2A0D2A152A0030C1000030C0000030FB
:10242400BF000030BE00C017C101202A0030C10027
:102434000030C0000030BF000030BE00410840043E
:102444003F043E04031D272A282A412A0030C500E0
:102454000030C4000030C3000030C2008030C40427
:102464007F30C5044F08C6004608C5044508C100AE
:102474004408C0004308BF004208BE009C2B560815
:10248400031D452A462A4F2A0030C1000030C000EF
:102494000030BF000030BE009C2B5608C600C701A8
:1024A4004708C90057084602C800031CC903480866
:1024B4007F3ED00049080318013E003ED100450884
:1024C400CE004408CD004308CC004208CB000030C5
:1024D400C5000030C4000030C3000030C20000302A
:1024E400D5000030D4000030D3000030D200D70132
:1024F400C52A570803197F2A802AA02A0130C6005A
:102504000310CB0DCC0DCD0DCE0DC60B822A0130A0
:10251400C6000310C20DC30DC40DC50DC60B8B2A16
:10252400D51F952A962A972A42140130C600031013
:10253400D20DD30DD40DD50DC60B992A41084E02E8
:10254400031DAE2A40084D02031DAE2A3F084C026B
:10255400031DAE2A3E084B02031CB12AB22AC12A2B
:1025640055173E08CB023F08031C3F0FCC0240081E
:10257400031C400FCD024108031C410FCE02013061
:10258400C6004608D7071A305702031CCA2ACB2AAA
:102594007B2A4E084D044C044B040319D22AD32A37
:1025A400F22A5214F22A0130C6000310C20DC30DE0
:1025B400C40DC50DC60BD72AD51FE12AE22AE32A8A
:1025C40042140130C6000310D20DD30DD40DD50D25
:1025D400C60BE52AFF30D0070318D10AFF30D10714
:1025E400C41FF52AF62AD52AD701D51FFA2AFB2AB1
:1025F400172BFF305205C600FF305305C700FF30CC
:102604005405C8007F305505C900490848044704EB
:10261400460403190E2B0F2B122BD701D70A172BA5
:10262400421C152B162B172B0F2B570803191B2B8A
:102634001C2B4D2B0130C207003003180130C30797
:10264400003003180130C407003003180130C507F7
:10265400451C2D2B2E2B4D2B4208C6004308C700CA
:102664004408C8004508C9000130CA00490DC90C16
:10267400C80CC70CC60CCA0B382B4908C50048083F
:10268400C4004708C3004608C2000130D00703183D
:10269400D10A0030D1075108803AFF0080307F0210
:1026A400031D562BFF305002031C592B5A2B682B49
:1026B400FF3083120313D0000030D1000030C50076
:1026C4000030C4000030C3000030C2008312031382
:1026D4005108803AFF0080307F02031D732B0130C4
:1026E40050020318762B772B842B83120313D0010B
:1026F400D1010030C5000030C4000030C3000030F8
:10270400C200CF01831203135008D600561C8B2B32
:102714008C2B8E2BC417922B7F30C6004608C40521
:102724005608C6000310460CC5004F08C6004608EC
:10273400C504382A080083120313D1006E305102F5
:10274400031CA52BA62BB32C3F30A7000030A600FA
:102754000030A5000030A4006430F6000030F7001B
:102764005108C200C3014208F8004308F9000A16E0
:102774008A15E1240A168A11760883120313C40009
:1027840001300310C40DFF3E031DC32B0310440D81
:102794007D3E84000A168A110A200A168A11C50091
:1027A4000A168A110A200A168A11C6000A168A1104
:1027B4000A200A168A11C7000A168A110A200A1664
:1027C4008A11C8004808AB004708AA004608A900B7
:1027D4004508A8000A128A155C210A168A11831278
:1027E40003132708D0002608CF002508CE002408AC
:1027F400CD000A30F6000030F7005108C200C301D2
:102804004208F2004308F3006430F0000030F100A5
:102814000A168A1565240A168A117108F9007008C7
:10282400F8000A168A15E1240A168A11760883121A
:102834000313C40001300310C40DFF3E031D1D2CFF
:102844000310440D593E84000A168A110A200A1600
:102854008A11C5000A168A110A200A168A11C600AE
:102864000A168A110A200A168A11C7000A168A1142
:102874000A200A168A11C8004808A7004708A600BB
:102884004608A5004508A4005008AB004F08AA005C
:102894004E08A9004D08A8000A128A155C210A16E0
:1028A4008A11831203132708CC002608CB002508BD
:1028B400CA002408C9000A30F0000030F1005108B1
:1028C400C200C3014208F2004308F3000A168A1545
:1028D40065240A168A11700883120313C400013098
:1028E4000310C40DFF3E031D722C0310440D353E2E
:1028F40084000A168A110A200A168A11C5000A16CB
:102904008A110A200A168A11C6000A168A110A2098
:102914000A168A11C7000A168A110A200A168A1191
:10292400C8004808A7004708A6004608A5004508AF
:10293400A4004C08AB004B08AA004A08A9004908A7
:10294400A8000A128A155C210A168A11831203133D
:102954002708C1002608C0002508BF002408BE00BF
:10296400A72D0B305102031CB82CB92C642D3F3019
:10297400A7000030A6000030A5000030A4000A30F3
:10298400F6000030F7005108C200C3014208F80005
:102994004308F9000A168A15E1240A168A117608F2
:1029A40083120313C40001300310C40DFF3E031D42
:1029B400D62C0310440D593E84000A168A110A20AD
:1029C4000A168A11C5000A168A110A200A168A11E3
:1029D400C6000A168A110A200A168A11C7000A16A6
:1029E4008A110A200A168A11C8004808AB00470851
:1029F400AA004608A9004508A8000A128A155C2105
:102A04000A168A11831203132708D0002608CF0060
:102A14002508CE002408CD000A30F0000030F10073
:102A24005108C200C3014208F2004308F3000A1629
:102A34008A1565240A168A11700883120313C400C8
:102A440001300310C40DFF3E031D232D0310440D5C
:102A5400353E84000A168A110A200A168A11C50016
:102A64000A168A110A200A168A11C6000A168A1141
:102A74000A200A168A11C7000A168A110A200A16A1
:102A84008A11C8004808A7004708A6004608A50000
:102A94004508A4005008AB004F08AA004E08A9003E
:102AA4004D08A8000A128A155C210A168A1183129D
:102AB40003132708C1002608C0002508BF00240806
:102AC400BE00A72D3F30A7000030A6000030A500AF
:102AD4000030A4005108C20001300310C20DFF3EB3
:102AE400031D6F2D0310420D353E84000A168A1112
:102AF4000A200A168A11C3000A168A110A200A1625
:102B04008A11C4000A168A110A200A168A11C500FD
:102B14000A168A110A200A168A11C6004608AB0052
:102B24004508AA004408A9004308A8000A128A1507
:102B34005C210A168A11831203132708C100260890
:102B4400C0002508BF002408BE0008008312031338
:102B540055088039E2005508DA005A07E400D41F0A
:102B6400B42DB52DB62D641464080319BA2DBB2DEC
:102B7400CB2D640A031DBF2DC02DC82D0030D500F8
:102B84000030D4000030D3000030D200D417D50177
:102B9400D32D0030D5000030D4000030D3000030F5
:102BA400D20059088039E300630862060319DB2D5B
:102BB400DC2DDD2D62175908DA005A07E300D81F0F
:102BC400E42DE52DE62D631463080319EA2DEB2D9E
:102BD400FB2D630A031DEF2DF02DF82D0030D900D5
:102BE4000030D8000030D7000030D600D817D90103
:102BF400032E0030D9000030D8000030D700003058
:102C0400D600640863020318082E092E2F2E621FB3
:102C14000C2E0D2E112E8030DA005A08E2066408BC
:102C2400E5006308E4006508E3005208E50056087F
:102C3400D2006508D6005308E5005708D30065089C
:102C4400D7005408E5005808D4006508D800550892
:102C5400E5005908D5006508D900E5016308DA00E4
:102C6400DB015B08DD0064085A02DC00031CDD03A1
:102C74005D08803AFF0080307F02031D432E1A3026
:102C84005C02031C462E472E7E2E83120313550826
:102C9400540453045204031D502E522E0130532E5B
:102CA4000030E5000030D5000030D4000030D300FF
:102CB4000030D2006308E400862E651C622E632E69
:102CC4006A2E6508DA0003105A0C0138E5006C2EF0
:102CD4000310E50C521C6F2E702E712EE517013077
:102CE400DA00550DD50CD40CD30CD20CDA0B732EA0
:102CF4000130DA005A08E4078312031363086402FC
:102D0400031C852E862E5F2E621B892E8A2ED32EBF
:102D14006408031D8E2E8F2E982E0030D5000030AF
:102D2400D4000030D3000030D200FF2F5608D20761
:102D3400570803110318013E0319A12ED30758089D
:102D440003110318013E0319A82ED40759080311CF
:102D54000318013E0319AF2ED507551CB22EB32E0E
:102D6400872F651CB62EB72EBE2E6508DA00031019
:102D74005A0C0138E500C02E0310E50C521CC32E7A
:102D8400C42EC52EE5170130DA00550DD50CD40C30
:102D9400D30CD20CDA0BC72E0130DA005A08E40740
:102DA400872F5508803AFF005908803A7F02031D97
:102DB400E52E58085402031DE52E57085302031D3F
:102DC400E52E560852020318E82EE92E412FFF3053
:102DD400DA00FF30DB00FF30DC00FF30DD00560896
:102DE400DE005708DF005808E0005908E1005208E7
:102DF400DE025308031C530F002F012FDF02540877
:102E0400031C540F062F072FE0025508031C550F0F
:102E14000C2F0D2FE1025E08DA075F0803185F0F1D
:102E2400142F152FDB0760080318600F1A2F1B2FB0
:102E3400DC0761080318610ADD075D08D5005C083A
:102E4400D4005B08D3005A08D2008030DA005A0854
:102E5400E206E509E50A6508031D312F322F4F2FDD
:102E64000130D207003003180130D30700300318B3
:102E74000130D407003003180130D5074F2F56080E
:102E8400D2025708031C570FD3025808031C580FCB
:102E9400D4025908031C590FD5025508540453048D
:102EA4005204031D562F572F832F6508031D5B2FD4
:102EB4005C2F832F0030D5000030D4000030D300C5
:102EC4000030D200FF2F0130DA000310D20DD30DF1
:102ED400D40DD50DDA0B672FE51F712F722F732FC9
:102EE4005214651C762F772F7A2F0314E50D7C2F4F
:102EF4000310E50D64080319802F812F832F0130FF
:102F0400E402D41F862F872F652FE301E51F8B2F43
:102F14008C2F9A2F65087F390319912F922F952FA3
:102F2400E301E30A9A2F521C982F992F9A2F922F7C
:102F3400630803199E2F9F2FD32F0130D20700302F
:102F440003180130D307003003180130D4070030D0
:102F540003180130D507551CB02FB12FD32F5208B9
:102F6400DA005308DB005408DC005508DD000130AA
:102F7400DE005D0DDD0CDC0CDB0CDA0CDE0BBB2F94
:102F84005D08D5005C08D4005B08D3005A08D20061
:102F9400640A0319CE2FCF2FD32F0130DA005A0839
:102FA400E407640A0319D72FD82FDD2F6408031D03
:102FB400DC2FDD2FEB2F0030D5000030D4000030A3
:102FC400D3000030D2006408031DE92FEA2FEB2F51
:102FD400E201641CEE2FEF2FF12FD417F52F7F3071
:102FE400DA005A08D4056408DA0003105A0CD50034
:0C2FF400E21FFD2FFE2FFF2FD517080055
:103586000A168A15EA220A168A15831603131114D7
:1035960008000A168A15EA220A168A1583160313E4
:1035A600111508000A168A15EA220A168A157008E5
:1035B60083120313930008007308720471047004E5
:1035C6000319E62AE72AE92A8030F306080083165B
:1035D60003131419EF2AF02AEA2A11081F39031DCA
:1035E600F52AF62AEA2A080000300A128A110A2069
:1035F6000A168A1501300A128A110A200A168A1535
:103606000800F100F0013A30710203180B2B0C2B65
:10361600142B30307102031C112B122B142BF001CA
:10362600F00A700C0800F000701C1A2B1B2B1F2BC5
:10363600831203130816222B831203130812F01C9D
:10364600252B262B282B8816292B8812701D2C2B10
:103656002D2B2F2B0817302B0813F01D332B342B53
:10366600362B8817372B8813080083160317880113
:1036760089018316031385018312031385018316BB
:10368600031388018312031388018316031386012B
:103696008312031386010030A3000130A200863096
:1036A600A100A030A0000A168A152D240A168A1534
:1036B6000800803083120313E9066D08D5006C08F4
:1036C600D4006B08D3006A08D2006908D9006808DC
:1036D600D8006708D7006608D6000A168A11A825FA
:1036E6000A168A15831203135508E9005408E800E0
:1036F6005308E7005208E6000800F401F501701CC3
:10370600852B862B8C2B7208F4070318F50A730891
:10371600F50701300310F20DF30DFF3E031D8D2B4F
:1037260001300310F10CF00CFF3E031D942B7008C2
:103736007104031D9F2BA02B822B7508F1007408C2
:10374600F0000800F800F401F5017008F200F3013A
:103756007208F6007308F700781CB22BB32BB92B4E
:103766007608F4070318F50A7708F5070130031001
:10377600F60DF70DFF3E031DBA2B0310F80C780863
:10378600031DC62BC72BAF2B7508F1007408F0007C
:1037960008000A168A15EA220A168A1583160313E2
:1037A60091150A168A15EA220A168A158312031338
:1037B6001308F200F3017208F4007308F5000A1604
:1037C6008A15EA220A168A1570037104031DEC2B6A
:1037D600ED2BF12B831603139112F42B831603138F
:1037E600911611167508F1007408F0000800F4002F
:1037F60074080F39F2007408F039F30083120313CA
:1038060008157308F10004300310F10CFF3E031D88
:10381600072C71080A168A1516230A168A158312AA
:10382600031388150D30F100F10B172C83120313C7
:10383600881172080A168A1516230A168A15831223
:10384600031388150D30F100F10B272C8312031397
:10385600881108002830831203139400831603137B
:103866009101831203132008A4002108A500220851
:10387600A6002308A70002300310A40DA50DA60D6F
:10388600A70DFF3E031D3F2C2708F3002608F20074
:103896002508F1002408F0000030F7007A30F60021
:1038A6001230F5000030F4000A168A1522270A168F
:1038B6008A157008FF3E831603139300940187153B
:1038C600071608007008710403196A2C6B2C9A2CD1
:1038D600F501F50A792C01300310F00DF10DFF3ECC
:1038E600031D6F2C0130F4007408F507F11F7C2CC2
:1038F6007D2C6E2C71087302031D832C70087202D6
:10390600031C862C872C8D2C7008F2027108031C70
:10391600F303F30201300310F10CF00CFF3E031D1C
:103926008E2C0130F502031D992C9A2C7D2C7308E0
:10393600F1007208F0000800FA01FB01C42C7A08B5
:103946007507F8007608F7000318F70AFA1FAC2C7B
:10395600F7037708F900790883120313FF00780844
:1039660084000A168A1100200A168A150A168A1574
:10397600FA230A168A150130FA070318FB0A0030E3
:10398600FB077A087507F8007608F7000318F70AA8
:10399600FA1FCE2CF7037708F90079088312031370
:1039A600FF00780884000A168A1100200A168A1574
:1039B600003A031DDF2CE02CA22C0800FB01FC01C1
:1039C600760877040319E82CE92C202DFD01FD0A61
:1039D600F72C01300310F60DF70DFF3E031DED2CFD
:1039E6000130FA007A08FD07F71FFA2CFB2CEC2CA5
:1039F60001300310FB0DFC0DFF3E031DFC2C770868
:103A06007902031D082D76087802031C0B2D0C2D58
:103A1600132D7608F8027708031CF903F9027B14C4
:103A260001300310F70CF60CFF3E031D142D013078
:103A3600FD02031D1F2D202DFB2C7C08F7007B08A3
:103A4600F6000800F6007603031D2A2D2B2D482DBF
:103A560074087F3EF9007908F50004300310F50C70
:103A6600FF3E031D312D7508F70079080F39F80060
:103A760077080A128A110A200A168A1578080A1285
:103A86008A110A200A168A156A2D02307606031D47
:103A96004D2D4E2D6A2D7408BF3EF9007908F500AC
:103AA60004300310F50CFF3E031D542D7508F70076
:103AB60079080F39F80077080A128A110A200A16BF
:103AC6008A1578080A128A110A200A168A15080029
:103AD60000307005F80000307105F900803072057D
:103AE600FA007F307305FB007B087A0479047804BA
:103AF600031D7E2D7F2D872D0030F3000030F20050
:103B06000030F1000030F00000307405F80000309D
:103B16007505F90080307605FA007F307705FB00E1
:103B26007B087A0479047804031D9A2D9B2DA32D16
:103B36000030F7000030F6000030F5000030F400E9
:103B460077087306031DB12D76087206031DB12D85
:103B560075087106031DB12D740870060319B42D7E
:103B6600B52DB72D0310B82D031408007308720481
:103B7600710470040319C02DC12D042EF901F90A30
:103B8600D12D0130F8000310F00DF10DF20DF30DFB
:103B9600F80BC62D0130F8007808F907F31FD42D6D
:103BA600D52DC42D73087702031DE32D7208760206
:103BB600031DE32D71087502031DE32D70087402C1
:103BC600031CE62DE72DF52D7008F4027108031C81
:103BD600710FF5027208031C720FF6027308031CBC
:103BE600730FF70201300310F30CF20CF10CF00C1A
:103BF600FF3E031DF62D0130F902031D032E042E90
:103C0600D52D7708F3007608F2007508F1007408E0
:103C1600F0000800F601F31F112E122E192EF209DC
:103C2600F309F20A0319F30AF601F60AF11F1C2E2C
:103C36001D2E222EF009F109F00A0319F10A700867
:103C460071040319272E282E572EF501F50A362E54
:103C560001300310F00DF10DFF3E031D2C2E013037
:103C6600F4007408F507F11F392E3A2E2B2E710831
:103C76007302031D402E70087202031C432E442E4D
:103C86004A2E7008F2027108031CF303F302013096
:103C96000310F10CF00CFF3E031D4B2E0130F50214
:103CA600031D562E572E3A2E760803195B2E5C2ED0
:103CB600612EF209F309F20A0319F30A7308F100F7
:103CC6007208F000080000300A168A1516230A1634
:103CD6008A151A30F500F830F400F40B702EF50B47
:103CE600702E000003300A128A110A200A168A155D
:103CF6000730F5007D30F400F40B7F2EF50B7F2E98
:103D060003300A128A110A200A168A150F30F500A6
:103D16004730F400F40B8D2EF50B8D2E922E0330CA
:103D26000A128A110A200A168A1502300A128A1104
:103D36000A200A168A1502300A128A110A200A1661
:103D46008A1508300A128A110A200A168A150030C6
:103D56000A128A110A200A168A150C300A128A11CA
:103D66000A200A168A1500300A128A110A200A1633
:103D76008A1506300A128A110A200A168A150800C0
:103D8600F00007307006031DC92ECA2ECE2E7030E5
:103D9600831603138F0406307006031DD32ED42E0C
:103DA600DA2E831603130F088F3960388F0005301B
:103DB6007006031DDF2EE02EE62E831603130F0872
:103DC6008F3950388F0004307006031DEB2EEC2E11
:103DD600F22E831603130F088F3940388F000330F5
:103DE6007006031DF72EF82EFE2E831603130F08FA
:103DF6008F3930388F0002307006031D032F042FD1
:103E06000A2F831603130F088F3920388F0070038B
:103E1600031D0E2F0F2F152F831603130F088F392F
:103E260010388F007008031D192F1A2F1E2F8F3080
:103E3600831603138F05831603130F14080000302F
:103E4600FC000030FB000030FA000030F900730877
:103E56007204710470040319312F322F7F2FFD0174
:103E6600FD0A422F0130F8000310F00DF10DF20D9E
:103E7600F30DF80B372F0130F8007808FD07F31F14
:103E8600452F462F352F0130F8000310F90DFA0D96
:103E9600FB0DFC0DF80B482F73087702031D5D2FF1
:103EA60072087602031D5D2F71087502031D5D2FD2
:103EB60070087402031C602F612F702F7008F402C3
:103EC6007108031C710FF5027208031C720FF602CB
:103ED6007308031C730FF702791401300310F30CF7
:103EE600F20CF10CF00CFF3E031D712F0130FD02A8
:103EF600031D7E2F7F2F462F7C08F3007B08F200E0
:103F06007A08F1007908F000080003108312031301
:103F1600530D540DDA005A08031D922F932F9C2F30
:103F26000030D4000030D3000030D2000030D10081
:103F3600FF2F5108D5005208D6005308D700540861
:103F4600D8001F300310D80CD70CD60CD50CFF3E6A
:103F5600031DA52F5508D900D317FF30D105FF3013
:103F6600D205FF30D3050030D4059630DA02DA1FC9
:103F7600BD2FBE2FD82F5A08803A973E0318C42F5C
:103F8600C52FC62F932F01300310D40CD30CD20C9F
:103F9600D10CFF3E031DC72F0130D5005508DA07A7
:103FA600031DD62FD72FC62FEF2F20305A02031C02
:103FB600DD2FDE2FEA2F932F0130D5000310D10D10
:103FC600D20DD30DD40DD50BE12F0130DA025A08EC
:103FD600031DEE2FEF2FDF2F59080319F32FF42FB0
:103FE600FF2FD109D209D309D409D10A0319D20A5C
:103FF6000319D30A0319D40A0800FF3FFF3FFF3F06
:02400600FF3F7A
:04400E00D420FF3F7C
:00000001FF
