:100000000A128A11F52FFF1B0D2883137F188317FF
:100010000008840A0319FF0A080000308A00040857
:10002000840A820700340034003480343F340034C2
:1000300000342034413400340034C83442340034B5
:1000400000347A344434003440341C3446340034B0
:100050005034C33447340034243474344934803445
:10006000963418344B342034BC34BE344C342834E9
:100070006B346E344E34F934023415345034EC346D
:100080007834AD346034CA34F234493471340034D5
:10009000003480343F34CD34CC34CC343D340A3455
:1000A000D73423343C346F34123483343A34173425
:1000B000B734D1343834AC34C53427343734BD3454
:1000C0003734863435349534BF34D63433347734CA
:1000D000CC342B3432345F34703489343034FF34D0
:1000E000E634DB342E340834E5343C341E346034DA
:1000F0004234A2340D3401340034003400340A3464
:100100000034003400346434003400340034E83403
:100110000334003400341034273400340034A03465
:10012000863401340034403442340F340034803497
:100130009634983400340034E134F5340534003416
:10014000CA349A343B34203420342034203456349A
:100150000034533431343A34203400342F342034D2
:1001600020342F3400343A34203420343A340034EC
:1001700025342E34323466340034F300F201731C1B
:10018000C5287008F1007108F2070310F00D031084
:10019000F30C7308031DBF28720808005308803948
:1001A000E0005308D8005807E200D21B621462082E
:1001B0000319E828620A031DE5280030D300003047
:1001C000D2000030D1000030D000D217D301F02887
:1001D0000030D3000030D2000030D1000030D00019
:1001E00057088039E10061086006031D6017570851
:1001F000D8005807E100D61B6114610803190E29C5
:10020000610A031D0B290030D7000030D6000030F2
:10021000D5000030D400D617D70116290030D700FA
:100220000030D6000030D5000030D40062086102F2
:1002300003183E29601F20298030D8005808E006A6
:100240006208E3006108E2006308E1005008E3008F
:100250005408D0006308D4005108E3005508D100C9
:100260006308D5005208E3005608D2006308D600A0
:100270005308E3005708D3006308D700E30161087F
:10028000D800D9015908DB0062085802DA00031CC3
:10029000DB035B08803AFF0080307F02031D522998
:1002A0001A305A02031C852983120313530852047F
:1002B0005104500403195E2901305F290030E30026
:1002C0000030D3000030D2000030D1000030D00028
:1002D0006108E2008B29631C74296308D8000310AD
:1002E000580C0138E30076290310E30C5018E3178B
:1002F0000130D800530DD30CD20CD10CD00CD80B3C
:100300007A290130D8005808E207831203136108E4
:100310006202031C6B29601BCA296208031D99290C
:100320000030D3000030D2000030D1000030D000C7
:1003300008005408D007550803110318013E031D97
:10034000D107560803110318013E031DD2075708B1
:1003500003110318013E031DD307531C6C2A631CB1
:10036000B8296308D8000310580C0138E300BA29F3
:100370000310E30C5018E3170130D800530DD30CD1
:10038000D20CD10CD00CD80BBE290130D8005808A3
:10039000E2076C2A5308803AFF005708803A7F0230
:1003A000031DDC2956085202031DDC2955085102A1
:1003B000031DDC29540850020318342AFF30D800EA
:1003C000FF30D900FF30DA00FF30DB005408DC00DA
:1003D0005508DD005608DE005708DF005008DC0233
:1003E0005108031C510FF529F629DD025208031CA0
:1003F000520FFB29FC29DE025308031C530F012A6C
:10040000022ADF025C08D8075D0803185D0F092A7D
:100410000A2AD9075E0803185E0F0F2A102ADA0786
:100420005F0803185F0ADB075B08D3005A08D20095
:100430005908D1005808D0008030D8005808E0068C
:10044000E309E30A6308031D422A0130D0070030A4
:1004500003180130D107003003180130D2070030F3
:1004600003180130D307422A5408D0025508031C50
:10047000550FD1025608031C560FD2025708031C11
:10048000570FD3025308520451045004031D6A2A23
:100490006308031D6A2A0030D3000030D200003008
:1004A000D1000030D00008000130D8000310D00D7A
:1004B000D10DD20DD30DD80B562AE31B5014631C5B
:1004C000632A0314642A0310E30D620803196A2ADD
:1004D0000130E202D21F542AE101E31F772A6308A8
:1004E0007F3903195018752A772AE101E10A61085A
:1004F0000319AA2A0130D007003003180130D107B0
:10050000003003180130D207003003180130D30740
:10051000531CAA2A5008D8005108D9005208DA0002
:100520005308DB000130DC005B0DDB0CDA0CD90C6E
:10053000D80CDC0B942A5B08D3005A08D200590867
:10054000D1005808D000620A0319AA2A0130D80045
:100550005808E207620A031D6208031DBA2A003028
:10056000D3000030D2000030D1000030D00062084B
:100570000319E001621CBE2AD217C22A7F30D800BC
:100580005808D2056208D8000310580CD300E01FA9
:100590000800D3170800BB00A130AE000130A0074F
:1005A000FF30200784000A128A110D200A128A11D6
:1005B000C20042080319F02F253042060319E42A2D
:1005C0003B0884004208E92FAF01B00120088400F5
:1005D0000A128A110D200A128A112E3A031D2E2B9F
:1005E00030170130A5002508A007BC01BD01200877
:1005F00084000A128A110D200A128A110A168A151D
:10060000B3220A128A11031C342B0A30F000003086
:10061000F1003D08F3003C08F2000A168A156F232A
:100620000A128A117108BD007008BC0020088400FD
:100630000A128A110D200A128A11D03EA500FF303D
:1006400003180030A6002508BC070318BD0A2608B9
:10065000BD070130A5002508A007F72ABC01BD0190
:100660003016342B30154E2B0130A007FF302007F9
:1006700084000A128A110D200A128A11C200A500F4
:10068000A6012608003A0319462BCE2A2508003A6F
:100690000319F02F663A0319322BCE2A00302F05AA
:1006A000A50007303005A600250826040319BA2F37
:1006B000301E5E2B0630BC000030BD002E088400CA
:1006C00083130008BE00840A0008BF00840A0008E3
:1006D000C000840A0008C1000430A5002508AE0748
:1006E0004108F3004008F2003F08F1003E08F00026
:1006F0000030F7000030F6000030F5000030F40064
:100700000A168A1116210A128A110318A02B410811
:10071000F3004008F2003F08F1003E08F0000A161E
:100720008A15AA220A128A117308C1007208C00031
:100730007108BF007008BE000330AF040030B00481
:10074000B501B6014108F3004008F2003F08F1008E
:100750003E08F0000030F7000030F6000030F500F1
:100760000030F4000A168A15C0250A128A110318EF
:10077000762C0310400D410D823EB500FF3003186A
:100780000030B600FF30B5070318B60AFF30B607D1
:100790000330F0000030F1003608F3003508F200B5
:1007A0000A168A156F230A128A117108B60070089A
:1007B000B5000A30F7000030F8003608FA003508B6
:1007C000F9000A168A15ED260A128A11780883168E
:1007D000B6007708B500B61FF32BFF30B507031836
:1007E000B60AFF30B6073503FF3A0A128A15D82435
:1007F0000A128A1141088316BA0083124008831630
:10080000B90083123F088316B80083123E0883168E
:10081000B70041088312A700831640088312A60080
:1008200083163F088312A50083163E088312A40096
:1008300083163A088312AB00831639088312AA0084
:10084000831638088312A900831637088312A8007C
:100850000A168A1127250A128A1127088316BA0058
:10086000831226088316B900831225088316B80060
:10087000831224088316B7003A08F3003908F200FF
:100880003808F1003708F0003F30F7008030F600FC
:100890000030F5000030F4000A168A1116210A1201
:1008A0008A110318592CFF30B5070318B60AFF3018
:1008B000752C3A08F3003908F2003808F1003708BF
:1008C000F0004130F7002030F6000030F500003035
:1008D000F4000A168A1116210A128A11031C762CBA
:1008E0000130B5070318B60A0030B6073D08803A54
:1008F000FF0080307F02031D7F2C0D303C02031867
:10090000B52C831603133C080A128A150C200A1210
:100910008A114108D3004008D2003F08D1003E08A8
:10092000D000831641088312D70083164008831233
:10093000D60083163F088312D50083163E08831223
:10094000D4000A128A11CE200A128A115308831683
:10095000C100831252088316C00083125108831607
:10096000BF00831250088316BE0083160313360897
:10097000803AFF0080307F02031DC02C0A30350210
:100980000318012D831603134108F3004008F200F9
:100990003F08F1003E08F0000030F7000030F6009C
:1009A0000030F5000030F4000A168A15C0250A123E
:1009B0008A1103185E2D41088312D4008316400863
:1009C0008312D30083163F088312D20083163E0899
:1009D0008312D1000A168A1147200A128A1154087C
:1009E000530452045104031D5E2D83163608803AC9
:1009F000FF0080307F02031DFF2C02303502031CF4
:100A00005E2D831603133A08F3003908F200380804
:100A1000F1003708F0004030F7008930F600703000
:100A2000F5005F30F4000A168A1116210A128A11A5
:100A300003181C2DF7301D2DF830B5070318B60A22
:100A4000FF30B60735080A128A15D8240A128A110F
:100A500041088316BA00831240088316B900831236
:100A60003F088316B80083123E088316B70041087A
:100A7000F3004008F2003F08F1003E08F0003A0899
:100A8000F7003908F6003808F5003708F4000A16B0
:100A90008A114A220A128A1173088316B400720856
:100AA000B3007108B2007008B1000030C10000301E
:100AB000C0000030BF000030BE00C02D83160313FD
:100AC00041088312D400831640088312D300831692
:100AD0003F088312D20083163E088312D1000A1603
:100AE0008A1147200A128A1154088316B40083120F
:100AF00053088316B300831252088316B200831280
:100B000051088316B1003408F3003308F2003208AC
:100B1000F1003108F00000300A168A11A9210A12EA
:100B20008A1173088312E7007208E6007108E50075
:100B30007008E400831641088312EB008316400816
:100B40008312EA0083163F088312E90083163E08E9
:100B50008312E8000A168A15F1220A128A11670820
:100B60008316C100831266088316C00083126508CD
:100B70008316BF00831264088316BE00B501B60158
:100B8000C201C20A4208A50001300310A50DFF3EB4
:100B9000031DC52D0310250D693E84000A128A111C
:100BA0000D200A128A11A6000A128A110D200A12BB
:100BB0008A11A7000A128A110D200A128A11A800B0
:100BC0000A128A110D200A128A11A900290834027A
:100BD000031DF42D28083302031DF42D27083202CB
:100BE000031DF42D26083102031CFE2D0130A50043
:100BF0002508C2070A304206031DC22D2F080339FB
:100C000003190B2E3B0884002D3083138000013024
:100C1000A5002508BB070130C202420A03197D2E38
:100C20004208A50001300310A50DFF3E031D132E41
:100C30000310250D693E84000A128A110D200A1244
:100C40008A11F0000A128A110D200A128A11F1008D
:100C50000A128A110D200A128A11F2000A128A1150
:100C60000D200A128A11F3003408F7003308F60049
:100C70003208F5003108F4000A168A15A2270A1274
:100C80008A1173088316BA007208B9007108B80097
:100C90007008B7000030F3000030F2000030F100BF
:100CA0000A30F0003A08F7003908F6003808F50075
:100CB0003708F4000A168A1553260A128A11730897
:100CC000BA007208B9007108B8007008B7003B0894
:100CD00084003708303E052E831603133B0884003A
:100CE0003030831380000130A5002508BB07FF309A
:100CF000B5070318B60AFF30B6073608803AFF007A
:100D000080307F02031D862E0130350203186C2EC1
:100D1000831603133D08803AFF0080307F02031DD5
:100D2000932E09303C02031C992E083083160313BE
:100D30009C2E831603133C08C2004208A500A6019E
:100D40002508BC022608031CBD03BD024208031986
:100D5000B22E3B0884002E30831380000130A500A2
:100D60002508BB0742080A128A15D8240A128A11DC
:100D700041088316AD00831240088316AC0083122D
:100D80003F088316AB0083123E088316AA002D0885
:100D90008312AB0083162C088312AA0083162B083B
:100DA0008312A90083162A088312A800831641081B
:100DB0008312A700831640088312A60083163F08FB
:100DC0008312A50083163E088312A4000A168A1116
:100DD00027250A128A112708D4002608D3002508DF
:100DE000D2002408D1000A168A1147200A128A115B
:100DF00054088316B400831253088316B300831279
:100E000052088316B200831251088316B1000130D4
:100E1000C202420A0319B52F4208A500013003108F
:100E2000A50DFF3E031D0F2F0310250D693E840005
:100E30000A128A110D200A128A11F0000A128A1170
:100E40000D200A128A11F1000A128A110D200A12CD
:100E50008A11F2000A128A110D200A128A11F30077
:100E60003408F7003308F6003208F5003108F400C2
:100E70000A168A15A2270A128A1173088316BA0065
:100E80007208B9007108B8007008B7000030F300AC
:100E90000030F2000030F1000A30F0003A08F700AC
:100EA0003908F6003808F5003708F4000A168A15E4
:100EB00053260A128A117308BA007208B900710821
:100EC000B8007008B7003B0884003708303E831331
:100ED00080000130A5002508BB074208A5000130AD
:100EE0000310A50DFF3E031D702F0310250D693E55
:100EF00084000A128A110D200A128A11F0000A12C7
:100F00008A110D200A128A11F1000A128A110D208D
:100F10000A128A11F2000A128A110D200A128A118D
:100F2000F3003408F7003308F6003208F500310802
:100F3000F4000A168A1553260A128A117308B4009F
:100F40007208B3007108B2007008062F3B088400D5
:100F50003030831380000130A5002508BB07FF3027
:100F6000BC070318BD0AFF30BD073C083D04031948
:100F7000CE2AA62F3C083D04031DCA2F3408330493
:100F800032043104031DCA2F0130BC070318BD0A07
:100F90000030BD073D08803A803C031DD12F3C083E
:100FA0004202031CE02F831603133D08803AA5007C
:100FB00080302502031DDE2F42083C02031CE02F77
:100FC000831603132F0803390319CE2A3B08840024
:100FD0002D30831380000130A5002508BB07CE2AE1
:100FE0003B0884008313800108008313C33084000E
:100FF000DA300A168A15A22283010A128A15C32939
:1010020000300A168A15D9220A128A1501300A16E8
:101012008A15D92208008312CF006E304F02031CBA
:10102200F0283F30A7000030A6000030A5000030B5
:10103200A4006430F6004F080A168A154E230A12DD
:101042008A15C20001300310C20DFF3E031D242881
:101052000310420D7D3E84000A128A110D200A12ED
:101062008A15C3000A128A110D200A128A15C400B9
:101072000A128A110D200A128A15C5000A128A1153
:101082000D200A128A15C6004608AB004508AA00C0
:101092004408A9004308A8000A168A1127250A1243
:1010A2008A152708CE002608CD002508CC00240882
:1010B200CB000A30F6006430F0004F080A168A1599
:1010C2000F230A128A150A168A154E230A128A1546
:1010D200C20001300310C20DFF3E031D6B28031036
:1010E200420D593E84000A128A110D200A128A15F5
:1010F200C3000A128A110D200A128A15C4000A12AC
:101102008A110D200A128A15C5000A128A110D20B1
:101112000A128A15C6004608A7004508A600440818
:10112200A5004308A4004E08AB004D08AA004C08D5
:10113200A9004B08A8000A168A1127250A128A1547
:101142002708CA002608C9002508C8002408C700C5
:101152000A30F0004F080A168A150F230A128A1560
:10116200C20001300310C20DFF3E031DB32803105D
:10117200420D353E84000A128A110D200A128A1588
:10118200C3000A128A110D200A128A15C4000A121B
:101192008A110D200A128A15C5000A128A110D2021
:1011A2000A128A15C6004608A7004508A600440888
:1011B200A5004308A4004A08AB004908AA00480851
:1011C200A9004708A8000A168A1127252708C10086
:1011D2002608C0002508BF002408BE0008000B3006
:1011E2004F02031C83293F30A7000030A6000030C5
:1011F200A5000030A4000A30F6004F080A168A152E
:101202004E230A128A15C20001300310C20DFF3E9E
:10121200031D06290310420D593E84000A128A1149
:101222000D200A128A15C3000A128A110D200A1211
:101232008A15C4000A128A110D200A128A15C500E5
:101242000A128A110D200A128A15C6004608AB003E
:101252004508AA004408A9004308A8000A168A11F2
:1012620027250A128A152708CE002608CD00250850
:10127200CC002408CB000A30F0004F080A168A1569
:101282000F230A128A15C20001300310C20DFF3E5D
:10129200031D46290310420D353E84000A128A11AD
:1012A2000D200A128A15C3000A128A110D200A1291
:1012B2008A15C4000A128A110D200A128A15C50065
:1012C2000A128A110D200A128A15C6004608A700C2
:1012D2004508A6004408A5004308A4004E08AB0038
:1012E2004D08AA004C08A9004B08A8000A168A114A
:1012F20027252708C1002608C0002508BF002408AA
:10130200BE0008003F30A7000030A6000030A50054
:101312000030A4004F08C20001300310C20DFF3E8E
:10132200031D8E290310420D353E84000A128A11D4
:101332000D200A128A15C3000A128A110D200A1200
:101342008A15C4000A128A110D200A128A15C500D4
:101352000A128A110D200A128A15C6004608AB002D
:101362004508AA004408A9004308A8000A168A11E1
:1013720027252708C1002608C0002508BF00240829
:10138200BE00080007300A168A1101200A128A15C7
:101392000A168A1590230A128A150A168A154727F1
:1013A2000A128A150A128A1501200A128A150230B7
:1013B200F40001300A168A153F250A128A15973061
:1013C200F5008030F6000A168A1502250A128A15DF
:1013D200F401F40A02300A168A153F250A128A1508
:1013E2009130F5008030F6000A168A1502250A129D
:1013F2008A150A30F40001300A168A153F250A12AE
:101402008A15A130F5008030F6000A168A150225E9
:101412000A128A150A30F40002300A168A153F258C
:101422000A128A159C30F5008030F6000A168A15D9
:1014320002250A128A158316C701F201F301F30A83
:10144200F401F40AF50100300A168A11AE200A12DC
:101452008A1583164708831285000A168A15842284
:101462000A128A151130F0000030F1000A168A15AE
:1014720093220A128A150030F000F1000A168A152A
:10148200D5230A128A157008D6000A168A158922EF
:101492000A128A15033083120313EE000830ED009E
:1014A2007630EC00EC0B532AED0B532AEE0B532A49
:1014B2000000433083120313C1007F30C0000030AC
:1014C200BF000030BE004030A700A030A6000030B0
:1014D200A5000030A400831656088312EC00ED012B
:1014E200EE01EF016F08F3006E08F2006D08F100E3
:1014F2006C08F00001300A168A11A9210A128A1515
:1015020073088312AB007208AA007108A900700860
:10151200A8000A168A1127250A128A152708C5006B
:101522002608C4002508C3002408C2000A168A112E
:1015320090230A128A1541088316C60083124008B6
:101542008316C50083123F088316C40083123E0827
:101552008316C300A630A0004608A4004508A300D5
:101562004408A2004308A100D7300A128A11CB22F4
:101572000A128A15F401F40A02300A168A153F2566
:101582000A128A15D730F5000030F6000A168A15BD
:1015920002250A128A1500300A168A159F260A1297
:1015A2008A15D3000E308312A300A401A40A831665
:1015B20053080A168A157D250A128A1501300A1661
:1015C2008A159F260A128A15D1000B308312A300B6
:1015D200A401A40A831651080A168A157D250A1247
:1015E2008A1502300A168A159F260A128A15CF001A
:1015F20008308312A300A401A40A83164F080A1616
:101602008A157D250A128A1504300A168A159F2624
:101612000A128A15CD0008308312A3000230A400FA
:1016220083164D080A168A157D250A128A15053079
:101632000A168A159F260A128A15CB000B308312CE
:10164200A3000230A40083164B080A168A157D25D2
:101652000A128A1506300A168A159F260A128A1558
:10166200C9000E308312A3000230A4008316490879
:101672000A168A157D250A128A15861B582B3430C4
:1016820083120313ED00F130EC00EC0B462BED0B53
:10169200462B04308316031347020318572B0130DD
:1016A2008312EC006C088316C707582BC7018312FC
:1016B200061B202C343083120313ED00F130EC00B2
:1016C200EC0B612BED0B612B831603135308D20035
:1016D2005108D0004F08CE004D08CC004B08CA007C
:1016E2004908C8004708031D832B3B3050020318EA
:1016F200812B01308312EC006C088316D007EA2B91
:10170200D001EA2B4703031D932B17304E02031817
:10171200912B01308312EC006C088316CE07EA2B62
:10172200CE01EA2B02304706031DC82B4B030319D7
:10173200B22B03304B060319B22B05304B060319AB
:10174200B22B07304B060319B22B08304B06031994
:10175200B22B0A304B060319B22B0C304B06031D79
:10176200C02B1F304C020318BD2B01308312EC003A
:101772006C088316CC07EA2BCC01CC0AEA2B023088
:101782004B06031DC62B1C30B32B1E30B32B03306C
:101792004706031DDA2B0C304B020318D72B0130FE
:1017A2008312EC006C088316CA07EA2BCA01CA0A24
:1017B200EA2B04304706031DEA2B63304902031863
:1017C200E92B01308312EC006C088316C807EA2B60
:1017D200C80150080A168A152E230A128A15831682
:1017E200D0004E080A168A152E230A128A1583166D
:1017F200CE004C080A168A152E230A128A15831661
:10180200CC004A080A168A152E230A128A15831654
:10181200CA0048080A168A152E230A128A15831648
:10182200C8004E08F2004C08F3004A08F4004808C9
:10183200F50050080A168A11AE200A128A15831280
:10184200861A2A2A343083120313ED00F130EC0099
:10185200EC0B292CED0B292C831603135308D20011
:101862005108D0004F08CE004D08CC004B08CA00EA
:101872004908C8004708031D472C50080319442C87
:101882000130D002A62C3B30D000A62C4703031D0A
:10189200532C4E080319502C0130CE02A62C1730BF
:1018A200CE00A62C02304706031D8C2C4B030319D5
:1018B200722C03304B060319722C05304B060319A8
:1018C200722C07304B060319722C08304B06031991
:1018D200722C0A304B060319722C0C304B06031D76
:1018E2007B2C02304C02031C792C0130CC02A62C3A
:1018F2001F308A2C02304B06031D852C02304C020D
:101902000318762C1C308A2C02304C020318762CD9
:101912001E30CC00A62C03304706031D9A2C023041
:101922004A02031C972C0130CA02A62C0C30CA00B2
:10193200A62C04304706031DA62C48080319A42C24
:101942000130C802A62C6330C80050080A168A1556
:101952002E230A128A158316D0004E080A168A15FB
:101962002E230A128A158316CE004C080A168A15EF
:101972002E230A128A158316CC004A080A168A15E3
:101982002E230A128A158316CA0048080A168A15D7
:101992002E230A128A158316C8004E08F2004C083C
:1019A200F3004A08F4004808F5005008252A83127B
:1019B200D000D01F6F2ED009D00A5008803A123EB4
:1019C200031CBF2D0A30F7000030F8005008F20067
:1019D200F301F21BF3036430F0000030F1000A1649
:1019E2008A1508260A128A157108FA007008F90089
:1019F2000A168A15ED260A128A157708C2000130E6
:101A02000310C20DFF3E031D012D0310420D593E6E
:101A120084000A128A110D200A128A15C3000A12C2
:101A22008A110D200A128A15C4000A128A110D2089
:101A32000A128A15C5000A128A110D200A128A1585
:101A4200C6004608A7004508A6004408A5004308AA
:101A5200A4006430F7000030F8005008F900FA01E1
:101A6200F91BFA030A168A15ED260A128A15770857
:101A7200C70001300310C70DFF3E031D3B2D0310AD
:101A8200470D7D3E84000A128A110D200A128A1522
:101A9200C8000A128A110D200A128A15C9000A12F8
:101AA2008A110D200A128A15CA000A128A110D2003
:101AB2000A128A15CB004B08AB004A08AA00490853
:101AC200A9004808A8000A168A1127250A128A15B1
:101AD2002708CF002608CE002508CD002408CC0018
:101AE2000A30F0000030F1005008F200F301F21B5E
:101AF200F3030A168A1508260A128A157008C2000C
:101B020001300310C20DFF3E031D822D0310420D52
:101B1200353E84000A128A110D200A128A15C3006A
:101B22000A128A110D200A128A15C4000A128A1199
:101B32000D200A128A15C5000A128A110D200A12F6
:101B42008A15C6004608A7004508A6004408A50055
:101B52004308A4004F08AB004E08AA004D08A90094
:101B62004C08A8000A168A1127252708C100260852
:101B7200C0002508BF002408BE0008005008803AB3
:101B8200753E031C442E0A30F0000030F10050086C
:101B9200F200F301F21BF3030A168A1508260A1251
:101BA2008A157008C20001300310C20DFF3E031DEA
:101BB200D52D0310420D353E84000A128A110D20E4
:101BC2000A128A15C3000A128A110D200A128A15F6
:101BD200C4000A128A110D200A128A15C5000A12BF
:101BE2008A110D200A128A15C6004608A700450868
:101BF200A6004408A5004308A4000A30F7000030FC
:101C0200F8005008F900FA01F91BFA030A168A15BE
:101C1200ED260A128A157708C70001300310C70D96
:101C2200FF3E031D0F2E0310470D593E84000A127A
:101C32008A110D200A128A15C8000A128A110D2073
:101C42000A128A15C9000A128A110D200A128A156F
:101C5200CA000A128A110D200A128A15CB004B08FB
:101C6200AB004A08AA004908A9004808A8000A16B9
:101C72008A1127252708C1002608C0002508BF00B1
:101C82002408BE0008005008C20001300310C20D33
:101C9200FF3E031D472E0310420D353E84000A12FB
:101CA2008A110D200A128A15C3000A128A110D2008
:101CB2000A128A15C4000A128A110D200A128A1504
:101CC200C5000A128A110D20C6004608C100450847
:101CD200C0004408BF004308BE0008005008803A14
:101CE200123E031C502F0A30F7000030F800500853
:101CF200F200F301F21BF3036430F0000030F10054
:101D02000A168A1508260A128A157108FA0070083E
:101D1200F9000A168A15ED260A128A157708C200FA
:101D220001300310C20DFF3E031D922E0310420D1F
:101D3200253E84000A128A110D200A128A15C30058
:101D42000A128A110D200A128A15C4000A128A1177
:101D52000D200A128A15C5000A128A110D200A12D4
:101D62008A15C6004608A7004508A6004408A50033
:101D72004308A4006430F7000030F8005008F9006E
:101D8200FA01F91BFA030A168A15ED260A128A15B8
:101D92007708C70001300310C70DFF3E031DCC2E8C
:101DA2000310470D493E84000A128A110D200A12BF
:101DB2008A15C8000A128A110D200A128A15C90052
:101DC2000A128A110D200A128A15CA000A128A11F1
:101DD2000D200A128A15CB004B08AB004A08AA0054
:101DE2004908A9004808A8000A168A1127250A12DC
:101DF2008A152708CF002608CE002508CD00240822
:101E0200CC000A30F0000030F1005008F200F3017B
:101E1200F21BF3030A168A1508260A128A1570089D
:101E2200C20001300310C20DFF3E031D132F031029
:101E3200420D013E84000A128A110D200A128A15EF
:101E4200C3000A128A110D200A128A15C4000A124E
:101E52008A110D200A128A15C5000A128A110D2054
:101E62000A128A15C6004608A7004508A6004408BB
:101E7200A5004308A4004F08AB004E08AA004D0875
:101E8200A9004C08A8000A168A1127252708C100B4
:101E92002608C0002508BF002408BE00080050081C
:101EA200803A753E031CD52F0A30F0000030F10055
:101EB2005008F200F301F21BF3030A168A150826F2
:101EC2000A128A157008C20001300310C20DFF3ECB
:101ED200031D662F0310420D013E84000A128A116F
:101EE2000D200A128A15C3000A128A110D200A1245
:101EF2008A15C4000A128A110D200A128A15C50019
:101F02000A128A110D200A128A15C6004608A70075
:101F12004508A6004408A5004308A4000A30F700BB
:101F22000030F8005008F900FA01F91BFA030A160A
:101F32008A15ED260A128A157708C70001300310A8
:101F4200C70DFF3E031DA02F0310470D253E840041
:101F52000A128A110D200A128A15C8000A128A1161
:101F62000D200A128A15C9000A128A110D200A12BE
:101F72008A15CA000A128A110D200A128A15CB008C
:101F82004B08AB004A08AA004908A9004808A80063
:101F92000A168A1127252708C1002608C00025082D
:101FA200BF002408BE0008005008C2000130031020
:101FB200C20DFF3E031DD82F0310420D013E8400C7
:101FC2000A128A110D200A128A15C3000A128A11F6
:101FD2000D200A128A15C4000A128A110D200A1253
:101FE2008A15C5000A128A110D20C6004608C100D2
:0E1FF2004508C0004408BF004308BE000800B8
:10200200F00007307006031D0928703083168F0414
:1020120006307006031D122883160F088F396038A8
:102022008F0005307006031D1B2883160F088F3999
:1020320050388F0004307006031D242883160F08C1
:102042008F3940388F0003307006031D2D28831608
:102052000F088F3930388F0002307006031D362882
:1020620083160F088F3920388F007003031D3E2816
:1020720083160F088F3910388F007008031D44280B
:102082008F3083168F0583160F1408000310530D2B
:10209200540DDA005A08031D57280030D4000030CE
:1020A200D3000030D2000030D10008005108D50022
:1020B2005208D6005308D7005408D8001F30031026
:1020C200D80CD70CD60CD50CFF3E031D6028550842
:1020D200D900D317FF30D105FF30D205FF30D30529
:1020E2000030D4059630DA02DA1F8C285A08803A7A
:1020F200973E031C4E2801300310D40CD30CD20C93
:10210200D10CFF3E031D7D280130D5005508DA07AA
:1021120003199F287C2820305A0203184E285A0897
:1021220003199F280130D5000310D10DD20DD30D14
:10213200D40DD50B95280130DA02902859080319DD
:102142000800D109D209D309D409D10A0319D20A44
:102152000319D30A0319D40A0800F8000A168A15CB
:1021620084220A168A11D030F0000030F1000A16DB
:102172008A1593220A168A110030F000F1000A161D
:102182008A1593220A168A110030F000F1000A160D
:102192008A1593220A168A117808F600F701760842
:1021A200F0007708F1000A168A1593220A168A119E
:1021B2007208F600F7017608F0007708F1000A16B7
:1021C2008A1593220A168A110130F0000030F100BC
:1021D2000A168A1593220A168A117308F600F70165
:1021E2007608F0007708F1000A168A1593220A167B
:1021F2008A117408F600F7017608F0007708F100FA
:102202000A168A1593220A168A117508F600F70132
:102212007608F0007708F1000A168A1593220A164A
:102222008A110A168A158922080000307005F80002
:1022320000307105F90080307205FA007F307305B5
:10224200FB007B087A0479047804031D30290030EE
:10225200F3000030F2000030F1000030F0000030F6
:102262007405F80000307505F90080307605FA0033
:102272007F307705FB007B087A0479047804031D1C
:102282004A290030F7000030F6000030F500003037
:10229200F400F31F70290030F8000030F90000301C
:1022A200FA008030FB007008F8027108031C710FFD
:1022B2005B295C29F9027208031C720F61296229E9
:1022C200FA027308031C730F67296829FB027B0853
:1022D200F3007A08F2007908F1007808F000F71F9D
:1022E20096290030F8000030F9000030FA00803002
:1022F200FB007408F8027508031C750F81298229F6
:10230200F9027608031C760F87298829FA027708D2
:10231200031C770F8D298E29FB027B08F7007A08B0
:10232200F6007908F5007808F4008030F306803072
:10233200F70677087302031D080076087202031D70
:10234200080075087102031D080074087002080075
:10235200F8007808031DF31FBE297009FA007109FD
:10236200FB007209FC007309FD00FA0A0319FB0A5B
:102372000319FC0A0319FD0AC6297308FD00720835
:10238200FC007108FB007008FA0073087204710403
:102392007004031DD5290030F3000030F200003034
:1023A200F1000030F00008009630F900FE307D05A3
:1023B2000319042A0130F4007408F90701300310EC
:1023C200FD0CFC0CFB0CFA0CFF3E031DE029D72987
:1023D2000130F4007408F9070130FA0700300318DD
:1023E2000130FB07003003180130FC0700300318EE
:1023F2000130FD0701300310FD0CFC0CFB0CFA0C44
:10240200FF3E031DFC29FF307D050319182AE92927
:1024120002307902031C1A2A0130F9020130F40059
:102422000310FA0DFB0DFC0DFD0DF40B112AFC1F20
:10243200092A7918242AFF30FA05FF30FB057F307C
:10244200FC05FF30FD050310F90C7908F400F501D5
:10245200F601F70118300310F40DF50DF60DF70D26
:10246200FF3E031D2C2A7408FA047508FB04760843
:10247200FC047708FD047808031DF31F412AFD17A9
:102482007D08F3007C08F2007B08F1007A08F00076
:1024920008000310720D730D8312A5002508031D99
:1024A2005B2A0030F3000030F2000030F10000300F
:1024B200F00008000310760D770DA400240803191C
:1024C200522AF217FF30F005FF30F105FF30F20516
:1024D2000030F305F617FF30F405FF30F505FF3045
:1024E200F6050030F7050030A3000030A2000030EE
:1024F200A1000030A0007F30A502A0302407F80020
:102502007808A5022030A4000130F8000310A00DC5
:10251200A10DA20DA30DF80B872A77087302031DE4
:102522009C2A76087202031D9C2A75087102031DFB
:102532009C2A74087002031CAD2A7408F002750804
:10254200031C750FF1027608031C760FF20277085E
:10255200031C770FF30220140130F8000310F00D72
:10256200F10DF20DF30DF80BAF2A0130A402031D99
:10257200852AA51FD12A2508803A9F3E031C522A8C
:1025820001300310A30CA20CA10CA00CFF3E031DF2
:10259200C22A0130F8007808A5070319E42AC12AE3
:1025A200203025020318522A25080319E42A013093
:1025B200F8000310A00DA10DA20DA30DF80BDA2A4D
:1025C2000130A502D52A2308F3002208F2002108CF
:1025D200F1002008F00008007008F8007108F90006
:1025E2007208FA000310790D7A0D83120313A50005
:1025F2002508031D052B0030F3000030F2000030E7
:10260200F1000030F00008007408F8007508F900C5
:102612007608FA000310790D7A0DA4002408031934
:10262200FC2AF117FF30F005FF30F1050030F2050A
:10263200F517FF30F405FF30F5050030F6050030E0
:10264200A3000030A2000030A1000030A0007F30C3
:10265200A50298302407F8007808A5021830A400D3
:102662000130F8000310A00DA10DA20DA30DF80B6F
:10267200332B76087202031D442B75087102031D69
:10268200442B74087002031C512B7408F002750865
:10269200031C750FF1027608031C760AF20220145D
:1026A20001300310F00DF10DF20DFF3E031D522B10
:1026B2000130A402031D312BA51F742B2508803A7B
:1026C200973E031CFC2A01300310A30CA20CA10CA0
:1026D200A00CFF3E031D652B0130F8007808A5070A
:1026E2000319872B642B183025020318FC2A2508AE
:1026F2000319872B0130F8000310A00DA10DA20DC4
:10270200A30DF80B7D2B0130A502782B2308F300D3
:102712002208F2002108F1002008F0000800450814
:102722008039CF004508C6004607D600C41B5614A0
:1027320056080319AA2B560A031DA72B0030C50001
:102742000030C4000030C3000030C200C417C5010D
:10275200B22B0030C5000030C4000030C30000308E
:10276200C20041088039C6004608CF064108C600AB
:102772004607D700C01B571457080319CE2B570A18
:10278200031DCB2B0030C1000030C0000030BF0061
:102792000030BE00C017C101D62B0030C10000308E
:1027A200C0000030BF000030BE00410840043F04BA
:1027B2003E04031DF52B0030C5000030C40000307C
:1027C200C3000030C2008030C4047F30C5044F080B
:1027D200C6004608C5044508C1004408C0004308B5
:1027E200BF004208BE0008005608031D012C00303D
:1027F200C1000030C0000030BF000030BE00080041
:102802005608C600C7014708C90057084602C80053
:10281200031CC90348087F3ED00049080318013E43
:10282200003ED1004508CE004408CD004308CC004C
:102832004208CB000030C5000030C4000030C300A5
:102842000030C2000030D5000030D4000030D30088
:102852000030D200D7011A3057020318742C5708DF
:102862000319502C0130C6000310CB0DCC0DCD0D39
:10287200CE0DC60B352C0130C6000310C20DC30DA0
:10288200C40DC50DC60B3E2CD51B42140130C6002B
:102892000310D20DD30DD40DD50DC60B492C410812
:1028A2004E02031D5E2C40084D02031D5E2C3F08A4
:1028B2004C02031D5E2C3E084B02031C6F2C551765
:1028C2003E08CB023F08031C3F0FCC024008031C0A
:1028D200400FCD024108031C410FCE020130C60059
:1028E2004608D7072C2C4E084D044C044B04031DFC
:1028F2005214C41B972C0130C6000310C20DC30D25
:10290200C40DC50DC60B7E2CD51B42140130C6006A
:102912000310D20DD30DD40DD50DC60B892CFF306B
:10292200D0070318D10AFF30D1077A2CD701D51F5F
:10293200B02CFF305205C600FF305305C700FF30F0
:102942005405C8007F305505C900490848044704AA
:10295200460403194218AE2CB02CD701D70A5708E7
:102962000319E22C0130C207003003180130C307FB
:10297200003003180130C407003003180130C507C6
:10298200451CE22C4208C6004308C7004408C800A0
:102992004508C9000130CA00490DC90CC80CC70C52
:1029A200C60CCA0BCD2C4908C5004808C40047080C
:1029B200C3004608C2000130D0070318D10A003014
:1029C200D1075108803AFF0080307F02031DEB2CB3
:1029D200FF305002031CFB2CFF3083120313D00084
:1029E2000030D1000030C5000030C4000030C30008
:1029F2000030C200831203135108803AFF00803076
:102A02007F02031D062D013050020318152D83127B
:102A12000313D001D1010030C5000030C4000030E2
:102A2200C3000030C200CF01831203135008D60046
:102A3200561C1D2DC417212D7F30C6004608C40523
:102A42005608C6000310460CC500E82B270880393B
:102A5200B1002708AC002C07B700A61B37143708B3
:102A62000319402D370A031D3E2D0030A700003008
:102A7200A6000030A5000030A400A617482D0030A3
:102A8200A7000030A6000030A5000030A4002B08EB
:102A92008039AC002C08B1062B08AC002C07B20020
:102AA200AA1B321432080319632D320A031D612D49
:102AB2000030AB000030AA000030A9000030A800AE
:102AC200AA176B2D0030AB000030AA000030A9001D
:102AD2000030A8003208031D3708031D792D00308D
:102AE200A7000030A6000030A5000030A4000800B6
:102AF2002408F0002A080A168A15B2230A168A1137
:102B02007108BD007008BC003C08AC00AD01AE010C
:102B1200AF012F08B6002E08B5002D08B4002C080E
:102B2200B3003D08AC00AD01AE01AF012F08BB0000
:102B32002E08BA002D08B9002C08B8002508F000AC
:102B420029080A168A15B2230A168A117108BD00CD
:102B52007008BC003C08AC00AD01AE01AF012C080E
:102B6200B3072D0803110318013E031DB4072E08F5
:102B720003110318013E031DB5072F0803110318A3
:102B8200013E031DB6073D08AC00AD01AE01AF0129
:102B92002C08B8072D0803110318013E031DB907BD
:102BA2002E0803110318013E031DBA072F08031153
:102BB2000318013E031DBB072608F00028080A1669
:102BC2008A15B2230A168A117108BD007008BC006A
:102BD2003C08AC00AD01AE01AF012C08B3072D08D3
:102BE20003110318013E031DB4072E080311031835
:102BF200013E031DB5072F0803110318013E031DF3
:102C0200B6073D08AC00AD01AE01AF012C08B80714
:102C12002D0803110318013E031DB9072E080311E5
:102C22000318013E031DBA072F0803110318013EC2
:102C3200031DBB070830AC000310B30DB40DB50D76
:102C4200B60DAC0B1D2E2508F00028080A168A15B1
:102C5200B2230A168A117108BD007008BC003C0834
:102C6200AC003D08AD00AE01AF012C08B3072D0842
:102C720003110318013E031DB4072E0803110318A4
:102C8200013E031DB5072F0803110318013E031D62
:102C9200B6072408F00029080A168A15B2230A1674
:102CA2008A117108BD007008BC003C08AC003D08E8
:102CB200AD00AE01AF012C08B3072D0803110318B4
:102CC200013E031DB4072E0803110318013E031D24
:102CD200B5072F0803110318013E031DB60708307C
:102CE200AC000310B30DB40DB50DB60DAC0B722EC6
:102CF2002408F00028080A168A15B2230A168A1137
:102D02007108BD007008BC003C08AC003D08AD0075
:102D1200AE01AF012C08B3072D0803110318013EC1
:102D2200031DB4072E0803110318013E031DB50746
:102D32002F0803110318013E031DB6072508F000F2
:102D42002A080A168A15B2230A168A117108BD00CA
:102D52007008BC003C08AC003D08AD00AE01AF01FC
:102D62002C08B8072D0803110318013E031DB907EB
:102D72002E0803110318013E031DBA072F08031181
:102D82000318013E031DBB072608F00029080A1696
:102D92008A15B2230A168A117108BD007008BC0098
:102DA2003C08AC003D08AD00AE01AF012C08B807ED
:102DB2002D0803110318013E031DB9072E08031144
:102DC2000318013E031DBA072F0803110318013E21
:102DD200031DBB072608F0002A080A168A15B2232B
:102DE2000A168A117108BD007008BC003C08AC00CC
:102DF2003D08AD00AE01AF0108300310AC0DAD0DC2
:102E0200AE0DAF0DFF3E031DFE2E2C08B8072D0898
:102E120003110318013E031DB9072E0803110318FD
:102E2200013E031DBA072F0803110318013E031DBB
:102E3200BB073608AC00AD01AE01AF012C08B807E4
:102E42002D0803110318013E031DB9072E080311B3
:102E52000318013E031DBA072F0803110318013E90
:102E6200031DBB070830AC000310B30DB40DB50D44
:102E7200B60DAC0B352F37083207AC00AD01AD0DE6
:102E82002C08823EBC002D080318013EFF3EBD0007
:102E9200BA1B662F0130AC000310B80DB90DBA0D84
:102EA200BB0DAC0B4D2FB61B38140130AC00031018
:102EB200B30DB40DB50DB60DAC0B582FFF30BC07DA
:102EC2000318BD0AFF30BD07492FB201B61F7F2F7D
:102ED200FF303305AC00FF303405AD00FF3035055F
:102EE200AE007F303605AF002F082E042D042C04CF
:102EF200031938187D2F7F2FB201B20A3208031945
:102F0200B12F0130B807003003180130B907003083
:102F120003180130BA07003003180130BB073B1C0D
:102F2200B12F3808AC003908AD003A08AE003B08B2
:102F3200AF000130B0002F0DAF0CAE0CAD0CAC0CDD
:102F4200B00B9C2F2F08BB002E08BA002D08B90029
:102F52002C08B8000130BC070318BD0A0030BD07B9
:102F62003D08803AFF0080307F02031DBA2FFF30F8
:102F72003C02031CC72F7F3083120313BB00803037
:102F8200BA000030B9000030B800F32F83120313E7
:102F92003D08803AFF0080307F02031DD22F0130AE
:102FA2003C020318E02F003083120313BB000030F1
:102FB200BA000030B9000030B800B101F32F83121B
:102FC20003133C08B700FF30B805FF30B9057F3066
:102FD200BA050030BB053718BA173708AC00031022
:102FE2002C0CBB003108AC002C08BB043B08A7002A
:0E2FF2003A08A6003908A5003808A400080017
:103508000A168A159A22111408000A168A159A2290
:10351800111508000A168A159A22911408000A162D
:103528008A159A22700883129300080083161419CA
:103538009A2A11081F39031908009A2A6400800181
:10354800840A0406031900340406A32A73087204C3
:1035580071047004031908008030F3060800F100B4
:10356800F0013A3071020318BF2A30307102031C8F
:10357800BF2AF001F00A700C0800F000701CC72A7E
:1035880083120816C92A83120812F01CCD2A88163D
:10359800CE2A8812701DD22A0817D32A0813F01DC4
:1035A800D72A8817080088130800F300831203132A
:1035B800081173080A168A15C1220A168A15881571
:1035C8000B30F2006230F100F10BE82AF20BE82A26
:1035D800000083120313881108008030E7066B0887
:1035E800D3006A08D2006908D1006808D0006708CB
:1035F800D7006608D6006508D5006408D4000A120A
:103608008A11CE205308E7005208E6005108E50069
:103618005008E4000800F3000830F400F5017308CE
:10362800F10007300310F10CFF3E031D162B75083F
:10363800F20072077104F5000310F30D70087502AB
:10364800031C282B7008F5020130F402031D132B0C
:10365800750808008312A1000A30F60021080A162E
:103668008A154E230A168A15A2002208FB00033089
:103678000310FB0DFF3E031D3C2B03107B0DA20026
:103688000A30F00021080A168A150F23A000200826
:1036980022070800F800FA01760803196D2BF901D2
:1036A800F90AF61B5E2B0310F60D0130F7007708B8
:1036B800F907552B0310FA0D76087802031C682BBE
:1036C8007608F8027A140310F60C0130F902031D8B
:1036D8005E2B7A080800F401F501701C792B72083A
:1036E800F4070318F50A7308F50701300310F20D03
:1036F800F30DFF3E031D7A2B01300310F10CF00C83
:10370800FF3E031D812B70087104031D712B750882
:10371800F1007408F00008000317880189010313F9
:103728008501831285018316880183128801E030A0
:1037380083168600E03083128600E03083169500F9
:10374800811300308312A3000130A2008630A1004B
:10375800A030A0000A168A152A240800F800F401EF
:10376800F5017008F200F3017208F6007308F7001B
:10377800781CC42B7608F4070318F50A7708F507B0
:1037880001300310F60DF70DFF3E031DC52B031086
:10379800F80C7808031DBC2B7508F1007408F000BC
:1037A80008000A168A159A220A168A1591150A1609
:1037B8008A159A220A168A1583121308F200F30151
:1037C8007208F4007308F5000A168A159A220A1678
:1037D8008A1570037104031DF32B9112F42B9116B3
:1037E80011167508F1007408F0000800F400740858
:1037F8000F39F2007408F039F300831208157308C2
:10380800F10004300310F10CFF3E031D062C710873
:103818000A168A15C1220A168A1588151A30F10067
:10382800F10B142C000083120313881172080A1676
:103838008A15C1220A168A1588151A30F100F10B6B
:10384800232C0000831203138811080028309400E9
:103858008316910183122008A4002108A5002208DC
:10386800A6002308A70002300310A40DA50DA60D7D
:10387800A70DFF3E031D382C2708F3002608F20089
:103888002508F1002408F0000030F7007A30F6002F
:103898001230F5000030F4000A168A15A2277008C5
:1038A800FF3E8316930094018715071608006430BD
:1038B800F6007D080A168A154E230A168A15A000F6
:1038C8006430F0007D080A168A150F230A168A1537
:1038D800A2000A30F00022080A168A150F230A16D9
:1038E8008A15A10002307B067C04031D7D2C20086C
:1038F80008007B037C04031D882C0A30F60022088C
:103908000A168A154E2308007B087C04031D08004C
:1039180021080800F90079080F39F7007408031D19
:10392800A02C7908F50004300310F50CFF3E031DA8
:10393800982C75080F39BC2C7403031DAE2C79081C
:10394800F50004300310F50CFF3E031DA62C750886
:103958000339BC2C02307406031DC52C7908F50008
:1039680004300310F50CFF3E031DB52C7508013912
:10397800F8000A30F00078080A128A11BD2077078B
:10398800F60076080800F0007008031DCD2C3030D2
:1039980008007003031DD22C313008000230700675
:1039A800031DD82C3230080003307006031DDE2CAE
:1039B8003330080004307006031DE42C343008004E
:1039C80005307006031DEA2C3530080006307006F5
:1039D800031DF02C3630080007307006031DF62C46
:1039E8003730080008307006031DFC2C38300800FA
:1039F80009307006031D080039300800FA01FB0180
:103A08007A087507F8007608F7000318F70AFA1B12
:103A1800F7037708F900790883120313FF00780881
:103A280084000A128A1103200A168A15003A03191B
:103A380008007A087507F8007608F7000318F70AEF
:103A4800FA1BF7037708F900790883120313FF00BC
:103A5800780884000A128A1103200A168A150A16A1
:103A68008A15FA230A168A150130FA070318FB0A81
:103A78000030FB07042DF6007603031D5E2D740845
:103A88007F3EF9007908F50004300310F50CFF3E7D
:103A9800031D492D7508F70079080F39F8007708D4
:103AA8000A168A15D9220A168A1578080A168A1556
:103AB800D922080002307606031D08007408BF3EAC
:103AC800F9007908F50004300310F50CFF3E031DDA
:103AD800682D7508F70079080F39F80077080A1675
:103AE8008A15D9220A168A1578080A168A15D9223B
:103AF80008008312A5002308013EF40024080A16D2
:103B08008A153F250A168A150030FB00FC0083122F
:103B18002508FD000A168A155B240A168A150A1656
:103B28008A15C7240A168A158316D50055080A1659
:103B38008A15FA230A168A152308F40024080A1697
:103B48008A153F250A168A150130FB000030FC0053
:103B580083122508FD000A168A155B240A168A15A1
:103B68000A168A15C7240A168A158316D40054081B
:103B78000A168A15FA23080000307005F80000308C
:103B88007105F90080307205FA007F307305FB007B
:103B98007B087A0479047804031DDA2D0030F300D9
:103BA8000030F2000030F1000030F0000030740501
:103BB800F80000307505F90080307605FA007F308E
:103BC8007705FB007B087A0479047804031DF42D3B
:103BD8000030F7000030F6000030F5000030F40047
:103BE80077087306031D022E76087206031D022E3F
:103BF80075087106031D022E740870060319062E37
:103C08000310080003140800F601F31F122EF2092E
:103C1800F309F20A0319F30AF601F60AF11F192E3D
:103C2800F009F109F00A0319F10A7008710403197F
:103C3800462EF501F50AF11B2D2E01300310F00D6B
:103C4800F10DFF3E031D222E0130F4007408F50724
:103C58001F2E71087302031D332E70087202031C95
:103C68003B2E7008F2027108031CF303F3020130C3
:103C78000310F10CF00CFF3E031D3C2E0130F50241
:103C8800031D2D2E760803194E2EF209F309F20AA8
:103C98000319F30A7308F1007208F00008007308AA
:103CA8007204710470040319962EF901F90AF31BC2
:103CB8006B2E0130F8000310F00DF10DF20DF30D2D
:103CC800F80B5F2E0130F8007808F9075B2E7308AF
:103CD8007702031D792E72087602031D792E71086A
:103CE8007502031D792E70087402031C892E700852
:103CF800F4027108031C710FF5027208031C720F9D
:103D0800F6027308031C730FF70201300310F30C5B
:103D1800F20CF10CF00CFF3E031D8A2E0130F90263
:103D2800031D6B2E7708F3007608F2007508F10082
:103D38007408F0000800FC000A168A1584220A1686
:103D48008A15D030F0000030F1000A168A15932247
:103D58000A168A157C08FA00FB017A08F0007B082D
:103D6800F1000A168A1593220A168A150A168A1568
:103D78008E220A168A15D130F0000030F1000A169A
:103D88008A1593220A168A150030F000F1000A16E7
:103D98008A15D5230A168A157008FD000A168A1591
:103DA80089220A168A1502307C06031DDE2EF401CC
:103DB800F40AE62E05307C06031DE52E0230F400D9
:103DC800E62EF4017D080A168A158E24FD007D086A
:103DD80008008312A101F81FF82EF709F809F70A5D
:103DE8000319F80AA101A10AFA1F032FF909FA0910
:103DF800F90A0319FA0A0130FB007B08A106A2019F
:103E0800A3017708780403193A2FA001A00AF81B28
:103E1800192F01300310F70DF80DFF3E031D0E2F6B
:103E28000130FB007B08A0070B2F01300310A20D07
:103E3800A30DFF3E031D1A2F78087A02031D262FB3
:103E480077087902031C2F2F7708F9027808031CDA
:103E5800FA03FA02221401300310F80CF70CFF3EA3
:103E6800031D302F0130A002031D192F210803194B
:103E7800422FA209A309A20A0319A30A2308F800DA
:103E88002208F700080000300A168A15C1220A160F
:103E98008A153430F500F130F400F40B512FF50B8E
:103EA800512F562F03300A168A15D9220A168A1559
:103EB8000D30F500FB30F400F40B602FF50B602F8C
:103EC800652F03300A168A15D9220A168A151D305D
:103ED800F5009130F400F40B6F2FF50B6F2F0330C2
:103EE8000A168A15D9220A168A1502300A168A1560
:103EF800D9220A168A1502300A168A15D9220A16F4
:103F08008A1508300A168A15D9220A168A15003029
:103F18000A168A15D9220A168A150C300A168A1525
:103F2800D9220A168A1500300A168A15D9220A16C5
:103F38008A1506300A168A15D92208000030FC00B6
:103F48000030FB000030FA000030F90073087204FA
:103F5800710470040319F72FFD01FD0AF31BC22F2A
:103F68000130F8000310F00DF10DF20DF30DF80B10
:103F7800B62F0130F8007808FD07B22F0130F8009D
:103F88000310F90DFA0DFB0DFC0DF80BC42F730887
:103F98007702031DD92F72087602031DD92F7108E5
:103FA8007502031DD92F70087402031CEA2F7008CC
:103FB800F4027108031C710FF5027208031C720FDA
:103FC800F6027308031C730FF7027914013003100B
:103FD800F30CF20CF10CF00CFF3E031DEB2F01303B
:103FE800FD02031DC22F7C08F3007B08F2007A084B
:103FF800F1007908F0000800FF3FFF3FFF3FFF3F57
:04400E00D420FF3F7C
:00000001FF
