:060000000A128A110C280F
:10000800FE00030EF1000A08F2000A128A11742891
:100018000A128A110F28F701F80183010A128A11BE
:100028005929F30007307306031D1B281C282028B4
:100038007030831603138F0406307306031D2528BA
:1000480026282C28831603130F088F3960388F0051
:1000580005307306031D3128322838288316031308
:100068000F088F3950388F0004307306031D3D2860
:100078003E284428831603130F088F3940388F0011
:1000880003307306031D49284A2850288316031392
:100098000F088F3930388F0002307306031D55283A
:1000A80056285C28831603130F088F3920388F00D1
:1000B8007303031D602861286728831603130F083C
:1000C8008F3910388F007308031D6B286C2870282F
:1000D8008F30831603138F05831603130F1408003C
:1000E800831203138C1D79287A28CA281412141B2A
:1000F8007E287F288328941F82288328882813082D
:10010800F80014139413141683160313941A8D28E5
:100118008E28A828141991289228A8288312031336
:100128001308F8008C11141683160313141C9D2849
:100138009E2898288312031313088800A630F0001D
:10014800F00BA4280000C728941AAB28AC28C728AD
:10015800141DAF28B028C728831203131308F8000A
:1001680083160313141077088312031393001416CD
:10017800A630F000F00BBE280000831603131418F5
:10018800C628C728C128831203138C1172088A0055
:10019800710E8300FE0E7E0E090073087404031DA1
:1001A800D628D728EF28C330831203139F050830B9
:1001B800F500F50BDD28831203139F149F18E5281B
:1001C800E628E2280C131E08F500F6017508F3006E
:1001D8007608F400202973037404031DF428F52815
:1001E8000729831203131F08C33904389F000830F6
:1001F800F500F50BFD28831203139F149F1805299A
:1002080006290229E628023073067404031D0D2905
:100218000E292029831203131F08C33908389F00A9
:100228000830F500F50B1629831203139F149F1845
:100238001E291F291B29E6280800731C24292529A3
:100248002E2983120313051083160313051483162E
:1002580003170814F31C312932293B29831203138D
:100268008510831603138514831603178814731DCA
:100278003E293F29482983120313051183160313C6
:100288000515831603170815831203139F131F17E9
:10029800831603139F121F129F13831203131F1435
:1002A8000830F500F50B5629080007300A128A11A4
:1002B80015200A128A110A128A11A8210A128A1113
:1002C8000130F3000030F4000A128A1121210A12C9
:1002D8008A110030F300F4000A128A11D1200A12A0
:1002E8008A117308F7007708831203138600033016
:1002F80083120313A2000830A1007630A000A00BDF
:100308008329A10B8329A20B832900006D290A12D6
:100318008A110C28F30073088316031393003630F0
:100328008312031394008030831603139400013062
:100338009100871507168B170B17831203138C115F
:10034800831603138C150800831603178901831677
:10035800031386018312031386018316031388018E
:1003680083120313880110300A128A118E210A128F
:040378008A110800DE
:08400000FF3FFF3FFF3FFF3FC0
:04400E00D420FF3F7C
:00000001FF
